{
  "contractName": "BridgeBase",
  "abi": [
    {
      "inputs": [
        {
          "internalType": "address",
          "name": "_token",
          "type": "address"
        }
      ],
      "stateMutability": "nonpayable",
      "type": "constructor"
    },
    {
      "anonymous": false,
      "inputs": [
        {
          "indexed": false,
          "internalType": "address",
          "name": "from",
          "type": "address"
        },
        {
          "indexed": false,
          "internalType": "address",
          "name": "to",
          "type": "address"
        },
        {
          "indexed": false,
          "internalType": "uint256",
          "name": "id",
          "type": "uint256"
        },
        {
          "indexed": false,
          "internalType": "uint256",
          "name": "amount",
          "type": "uint256"
        },
        {
          "indexed": false,
          "internalType": "uint256",
          "name": "date",
          "type": "uint256"
        },
        {
          "indexed": false,
          "internalType": "uint256",
          "name": "nonce",
          "type": "uint256"
        },
        {
          "indexed": true,
          "internalType": "enum BridgeBase.Step",
          "name": "step",
          "type": "uint8"
        }
      ],
      "name": "Transfer",
      "type": "event"
    },
    {
      "inputs": [],
      "name": "admin",
      "outputs": [
        {
          "internalType": "address",
          "name": "",
          "type": "address"
        }
      ],
      "stateMutability": "view",
      "type": "function"
    },
    {
      "inputs": [],
      "name": "nonce",
      "outputs": [
        {
          "internalType": "uint256",
          "name": "",
          "type": "uint256"
        }
      ],
      "stateMutability": "view",
      "type": "function"
    },
    {
      "inputs": [
        {
          "internalType": "uint256",
          "name": "",
          "type": "uint256"
        }
      ],
      "name": "processedNonces",
      "outputs": [
        {
          "internalType": "bool",
          "name": "",
          "type": "bool"
        }
      ],
      "stateMutability": "view",
      "type": "function"
    },
    {
      "inputs": [],
      "name": "token",
      "outputs": [
        {
          "internalType": "contract IToken",
          "name": "",
          "type": "address"
        }
      ],
      "stateMutability": "view",
      "type": "function"
    },
    {
      "inputs": [
        {
          "internalType": "address",
          "name": "to",
          "type": "address"
        },
        {
          "internalType": "uint256",
          "name": "id",
          "type": "uint256"
        },
        {
          "internalType": "uint256",
          "name": "amount",
          "type": "uint256"
        },
        {
          "internalType": "bytes",
          "name": "data",
          "type": "bytes"
        }
      ],
      "name": "burn",
      "outputs": [],
      "stateMutability": "nonpayable",
      "type": "function"
    },
    {
      "inputs": [
        {
          "internalType": "address",
          "name": "to",
          "type": "address"
        },
        {
          "internalType": "uint256",
          "name": "id",
          "type": "uint256"
        },
        {
          "internalType": "uint256",
          "name": "amount",
          "type": "uint256"
        },
        {
          "internalType": "bytes",
          "name": "data",
          "type": "bytes"
        },
        {
          "internalType": "uint256",
          "name": "otherChainNonce",
          "type": "uint256"
        }
      ],
      "name": "mint",
      "outputs": [],
      "stateMutability": "nonpayable",
      "type": "function"
    }
  ],
  "bytecode": "0x608060405234801561001057600080fd5b50604051610cf4380380610cf4833981810160405281019061003291906100ce565b336000806101000a81548173ffffffffffffffffffffffffffffffffffffffff021916908373ffffffffffffffffffffffffffffffffffffffff16021790555080600160006101000a81548173ffffffffffffffffffffffffffffffffffffffff021916908373ffffffffffffffffffffffffffffffffffffffff16021790555050610140565b6000815190506100c881610129565b92915050565b6000602082840312156100e057600080fd5b60006100ee848285016100b9565b91505092915050565b600061010282610109565b9050919050565b600073ffffffffffffffffffffffffffffffffffffffff82169050919050565b610132816100f7565b811461013d57600080fd5b50565b610ba58061014f6000396000f3fe608060405234801561001057600080fd5b50600436106100625760003560e01c80632a6d9e92146100675780638a94b05f1461008357806391dae5191461009f578063affed0e0146100cf578063f851a440146100ed578063fc0c546a1461010b575b600080fd5b610081600480360381019061007c9190610609565b610129565b005b61009d6004803603810190610098919061058e565b61035e565b005b6100b960048036038101906100b49190610698565b61048c565b6040516100c69190610844565b60405180910390f35b6100d76104ac565b6040516100e491906108ba565b60405180910390f35b6100f56104b2565b604051610102919061077c565b60405180910390f35b6101136104d6565b604051610120919061085f565b60405180910390f35b60008054906101000a900473ffffffffffffffffffffffffffffffffffffffff1673ffffffffffffffffffffffffffffffffffffffff163373ffffffffffffffffffffffffffffffffffffffff16146101b7576040517f08c379a00000000000000000000000000000000000000000000000000000000081526004016101ae9061087a565b60405180910390fd5b600015156003600083815260200190815260200160002060009054906101000a900460ff1615151461021e576040517f08c379a00000000000000000000000000000000000000000000000000000000081526004016102159061089a565b60405180910390fd5b60016003600083815260200190815260200160002060006101000a81548160ff021916908315150217905550600160009054906101000a900473ffffffffffffffffffffffffffffffffffffffff1673ffffffffffffffffffffffffffffffffffffffff1663731133e9338686866040518563ffffffff1660e01b81526004016102ab94939291906107f8565b600060405180830381600087803b1580156102c557600080fd5b505af11580156102d9573d6000803e3d6000fd5b50505050600180811115610316577f4e487b7100000000000000000000000000000000000000000000000000000000600052602160045260246000fd5b7f9cfa33fa3a49e361ae868b5f1262b6e8d3eeaa1cbe5c0f5589ddf4b4a9576bb133878787428760405161034f96959493929190610797565b60405180910390a25050505050565b600160009054906101000a900473ffffffffffffffffffffffffffffffffffffffff1673ffffffffffffffffffffffffffffffffffffffff16638a94b05f338585856040518563ffffffff1660e01b81526004016103bf94939291906107f8565b600060405180830381600087803b1580156103d957600080fd5b505af11580156103ed573d6000803e3d6000fd5b505050506000600181111561042b577f4e487b7100000000000000000000000000000000000000000000000000000000600052602160045260246000fd5b7f9cfa33fa3a49e361ae868b5f1262b6e8d3eeaa1cbe5c0f5589ddf4b4a9576bb1338686864260025460405161046696959493929190610797565b60405180910390a26002600081548092919061048190610a37565b919050555050505050565b60036020528060005260406000206000915054906101000a900460ff1681565b60025481565b60008054906101000a900473ffffffffffffffffffffffffffffffffffffffff1681565b600160009054906101000a900473ffffffffffffffffffffffffffffffffffffffff1681565b600061050f61050a846108fa565b6108d5565b90508281526020810184848401111561052757600080fd5b6105328482856109c4565b509392505050565b60008135905061054981610b41565b92915050565b600082601f83011261056057600080fd5b81356105708482602086016104fc565b91505092915050565b60008135905061058881610b58565b92915050565b600080600080608085870312156105a457600080fd5b60006105b28782880161053a565b94505060206105c387828801610579565b93505060406105d487828801610579565b925050606085013567ffffffffffffffff8111156105f157600080fd5b6105fd8782880161054f565b91505092959194509250565b600080600080600060a0868803121561062157600080fd5b600061062f8882890161053a565b955050602061064088828901610579565b945050604061065188828901610579565b935050606086013567ffffffffffffffff81111561066e57600080fd5b61067a8882890161054f565b925050608061068b88828901610579565b9150509295509295909350565b6000602082840312156106aa57600080fd5b60006106b884828501610579565b91505092915050565b6106ca81610958565b82525050565b6106d98161096a565b82525050565b60006106ea8261092b565b6106f48185610936565b93506107048185602086016109d3565b61070d81610ade565b840191505092915050565b610721816109a0565b82525050565b6000610734600a83610947565b915061073f82610aef565b602082019050919050565b6000610757601a83610947565b915061076282610b18565b602082019050919050565b61077681610996565b82525050565b600060208201905061079160008301846106c1565b92915050565b600060c0820190506107ac60008301896106c1565b6107b960208301886106c1565b6107c6604083018761076d565b6107d3606083018661076d565b6107e0608083018561076d565b6107ed60a083018461076d565b979650505050505050565b600060808201905061080d60008301876106c1565b61081a602083018661076d565b610827604083018561076d565b818103606083015261083981846106df565b905095945050505050565b600060208201905061085960008301846106d0565b92915050565b60006020820190506108746000830184610718565b92915050565b6000602082019050818103600083015261089381610727565b9050919050565b600060208201905081810360008301526108b38161074a565b9050919050565b60006020820190506108cf600083018461076d565b92915050565b60006108df6108f0565b90506108eb8282610a06565b919050565b6000604051905090565b600067ffffffffffffffff82111561091557610914610aaf565b5b61091e82610ade565b9050602081019050919050565b600081519050919050565b600082825260208201905092915050565b600082825260208201905092915050565b600061096382610976565b9050919050565b60008115159050919050565b600073ffffffffffffffffffffffffffffffffffffffff82169050919050565b6000819050919050565b60006109ab826109b2565b9050919050565b60006109bd82610976565b9050919050565b82818337600083830152505050565b60005b838110156109f15780820151818401526020810190506109d6565b83811115610a00576000848401525b50505050565b610a0f82610ade565b810181811067ffffffffffffffff82111715610a2e57610a2d610aaf565b5b80604052505050565b6000610a4282610996565b91507fffffffffffffffffffffffffffffffffffffffffffffffffffffffffffffffff821415610a7557610a74610a80565b5b600182019050919050565b7f4e487b7100000000000000000000000000000000000000000000000000000000600052601160045260246000fd5b7f4e487b7100000000000000000000000000000000000000000000000000000000600052604160045260246000fd5b6000601f19601f8301169050919050565b7f6f6e6c792061646d696e00000000000000000000000000000000000000000000600082015250565b7f7472616e7366657220616c72656164792070726f636573736564000000000000600082015250565b610b4a81610958565b8114610b5557600080fd5b50565b610b6181610996565b8114610b6c57600080fd5b5056fea264697066735822122041b5f6c0304cb154ca6f962b9bbd5f1521b2b6624efd1dcd806a2c2e818284eb64736f6c63430008010033",
  "immutableReferences": {},
  "source": "// SPDX-License-Identifier: MIT\npragma solidity ^0.8.1;\n\nimport '@openzeppelin/contracts/token/ERC1155/IERC1155.sol';\nimport './Itoken.sol';\n\ncontract BridgeBase {\n  address public admin;\n  IToken public token;\n  uint public nonce;\n  mapping(uint => bool) public processedNonces;\n\n  enum Step { Burn, Mint }\n  event Transfer(\n    address from,\n    address to,\n    uint id ,\n    uint amount,\n    uint date,\n    uint nonce,\n    Step indexed step\n  );\n\n  constructor(address _token) {\n    admin = msg.sender;\n    token = IToken(_token);\n  }\n\n  function burn(address to,  uint256 id, uint256 amount, bytes memory data) virtual external {\n    token.burn(msg.sender,id,amount,data);\n    emit Transfer(\n      msg.sender,\n      to,\n      id,\n      amount,\n      block.timestamp,\n      nonce,\n      Step.Burn\n    );\n    nonce++;\n  }\n\n  function mint(address to,  uint256 id, uint256 amount, bytes memory data, uint otherChainNonce) virtual external {\n    require(msg.sender == admin, 'only admin');\n    require(processedNonces[otherChainNonce] == false, 'transfer already processed');\n    processedNonces[otherChainNonce] = true;\n    token.mint(msg.sender, id , amount,data);\n    emit Transfer(\n      msg.sender,\n      to,\n      id,\n      amount,\n      block.timestamp,\n      otherChainNonce,\n      Step.Mint\n    );\n  }\n}",
  "sourcePath": "/home/ayush/Crosschain/contracts/BaseBridge.sol",
  "compiler": {
    "name": "solc",
    "version": "0.8.1+commit.df193b15.Emscripten.clang"
  },
  "schemaVersion": "3.4.7",
  "updatedAt": "2022-06-16T17:30:42.521Z",
  "devdoc": {
    "kind": "dev",
    "methods": {},
    "version": 1
  },
  "userdoc": {
    "kind": "user",
    "methods": {},
    "version": 1
  }
}