{
  "contractName": "ERC1155A",
  "abi": [
    {
      "inputs": [],
      "stateMutability": "nonpayable",
      "type": "constructor"
    },
    {
      "anonymous": false,
      "inputs": [
        {
          "indexed": true,
          "internalType": "address",
          "name": "account",
          "type": "address"
        },
        {
          "indexed": true,
          "internalType": "address",
          "name": "operator",
          "type": "address"
        },
        {
          "indexed": false,
          "internalType": "bool",
          "name": "approved",
          "type": "bool"
        }
      ],
      "name": "ApprovalForAll",
      "type": "event"
    },
    {
      "anonymous": false,
      "inputs": [
        {
          "indexed": true,
          "internalType": "bytes32",
          "name": "role",
          "type": "bytes32"
        },
        {
          "indexed": true,
          "internalType": "bytes32",
          "name": "previousAdminRole",
          "type": "bytes32"
        },
        {
          "indexed": true,
          "internalType": "bytes32",
          "name": "newAdminRole",
          "type": "bytes32"
        }
      ],
      "name": "RoleAdminChanged",
      "type": "event"
    },
    {
      "anonymous": false,
      "inputs": [
        {
          "indexed": true,
          "internalType": "bytes32",
          "name": "role",
          "type": "bytes32"
        },
        {
          "indexed": true,
          "internalType": "address",
          "name": "account",
          "type": "address"
        },
        {
          "indexed": true,
          "internalType": "address",
          "name": "sender",
          "type": "address"
        }
      ],
      "name": "RoleGranted",
      "type": "event"
    },
    {
      "anonymous": false,
      "inputs": [
        {
          "indexed": true,
          "internalType": "bytes32",
          "name": "role",
          "type": "bytes32"
        },
        {
          "indexed": true,
          "internalType": "address",
          "name": "account",
          "type": "address"
        },
        {
          "indexed": true,
          "internalType": "address",
          "name": "sender",
          "type": "address"
        }
      ],
      "name": "RoleRevoked",
      "type": "event"
    },
    {
      "anonymous": false,
      "inputs": [
        {
          "indexed": true,
          "internalType": "address",
          "name": "operator",
          "type": "address"
        },
        {
          "indexed": true,
          "internalType": "address",
          "name": "from",
          "type": "address"
        },
        {
          "indexed": true,
          "internalType": "address",
          "name": "to",
          "type": "address"
        },
        {
          "indexed": false,
          "internalType": "uint256[]",
          "name": "ids",
          "type": "uint256[]"
        },
        {
          "indexed": false,
          "internalType": "uint256[]",
          "name": "values",
          "type": "uint256[]"
        }
      ],
      "name": "TransferBatch",
      "type": "event"
    },
    {
      "anonymous": false,
      "inputs": [
        {
          "indexed": true,
          "internalType": "address",
          "name": "operator",
          "type": "address"
        },
        {
          "indexed": true,
          "internalType": "address",
          "name": "from",
          "type": "address"
        },
        {
          "indexed": true,
          "internalType": "address",
          "name": "to",
          "type": "address"
        },
        {
          "indexed": false,
          "internalType": "uint256",
          "name": "id",
          "type": "uint256"
        },
        {
          "indexed": false,
          "internalType": "uint256",
          "name": "value",
          "type": "uint256"
        }
      ],
      "name": "TransferSingle",
      "type": "event"
    },
    {
      "anonymous": false,
      "inputs": [
        {
          "indexed": false,
          "internalType": "string",
          "name": "value",
          "type": "string"
        },
        {
          "indexed": true,
          "internalType": "uint256",
          "name": "id",
          "type": "uint256"
        }
      ],
      "name": "URI",
      "type": "event"
    },
    {
      "inputs": [],
      "name": "DEFAULT_ADMIN_ROLE",
      "outputs": [
        {
          "internalType": "bytes32",
          "name": "",
          "type": "bytes32"
        }
      ],
      "stateMutability": "view",
      "type": "function"
    },
    {
      "inputs": [],
      "name": "MINTER_ROLE",
      "outputs": [
        {
          "internalType": "bytes32",
          "name": "",
          "type": "bytes32"
        }
      ],
      "stateMutability": "view",
      "type": "function"
    },
    {
      "inputs": [],
      "name": "URI_SETTER_ROLE",
      "outputs": [
        {
          "internalType": "bytes32",
          "name": "",
          "type": "bytes32"
        }
      ],
      "stateMutability": "view",
      "type": "function"
    },
    {
      "inputs": [
        {
          "internalType": "address",
          "name": "account",
          "type": "address"
        },
        {
          "internalType": "uint256",
          "name": "id",
          "type": "uint256"
        }
      ],
      "name": "balanceOf",
      "outputs": [
        {
          "internalType": "uint256",
          "name": "",
          "type": "uint256"
        }
      ],
      "stateMutability": "view",
      "type": "function"
    },
    {
      "inputs": [
        {
          "internalType": "address[]",
          "name": "accounts",
          "type": "address[]"
        },
        {
          "internalType": "uint256[]",
          "name": "ids",
          "type": "uint256[]"
        }
      ],
      "name": "balanceOfBatch",
      "outputs": [
        {
          "internalType": "uint256[]",
          "name": "",
          "type": "uint256[]"
        }
      ],
      "stateMutability": "view",
      "type": "function"
    },
    {
      "inputs": [
        {
          "internalType": "address",
          "name": "account",
          "type": "address"
        },
        {
          "internalType": "uint256",
          "name": "id",
          "type": "uint256"
        },
        {
          "internalType": "uint256",
          "name": "value",
          "type": "uint256"
        }
      ],
      "name": "burn",
      "outputs": [],
      "stateMutability": "nonpayable",
      "type": "function"
    },
    {
      "inputs": [
        {
          "internalType": "address",
          "name": "account",
          "type": "address"
        },
        {
          "internalType": "uint256[]",
          "name": "ids",
          "type": "uint256[]"
        },
        {
          "internalType": "uint256[]",
          "name": "values",
          "type": "uint256[]"
        }
      ],
      "name": "burnBatch",
      "outputs": [],
      "stateMutability": "nonpayable",
      "type": "function"
    },
    {
      "inputs": [
        {
          "internalType": "bytes32",
          "name": "role",
          "type": "bytes32"
        }
      ],
      "name": "getRoleAdmin",
      "outputs": [
        {
          "internalType": "bytes32",
          "name": "",
          "type": "bytes32"
        }
      ],
      "stateMutability": "view",
      "type": "function"
    },
    {
      "inputs": [
        {
          "internalType": "bytes32",
          "name": "role",
          "type": "bytes32"
        },
        {
          "internalType": "address",
          "name": "account",
          "type": "address"
        }
      ],
      "name": "grantRole",
      "outputs": [],
      "stateMutability": "nonpayable",
      "type": "function"
    },
    {
      "inputs": [
        {
          "internalType": "bytes32",
          "name": "role",
          "type": "bytes32"
        },
        {
          "internalType": "address",
          "name": "account",
          "type": "address"
        }
      ],
      "name": "hasRole",
      "outputs": [
        {
          "internalType": "bool",
          "name": "",
          "type": "bool"
        }
      ],
      "stateMutability": "view",
      "type": "function"
    },
    {
      "inputs": [
        {
          "internalType": "address",
          "name": "account",
          "type": "address"
        },
        {
          "internalType": "address",
          "name": "operator",
          "type": "address"
        }
      ],
      "name": "isApprovedForAll",
      "outputs": [
        {
          "internalType": "bool",
          "name": "",
          "type": "bool"
        }
      ],
      "stateMutability": "view",
      "type": "function"
    },
    {
      "inputs": [
        {
          "internalType": "bytes32",
          "name": "role",
          "type": "bytes32"
        },
        {
          "internalType": "address",
          "name": "account",
          "type": "address"
        }
      ],
      "name": "renounceRole",
      "outputs": [],
      "stateMutability": "nonpayable",
      "type": "function"
    },
    {
      "inputs": [
        {
          "internalType": "bytes32",
          "name": "role",
          "type": "bytes32"
        },
        {
          "internalType": "address",
          "name": "account",
          "type": "address"
        }
      ],
      "name": "revokeRole",
      "outputs": [],
      "stateMutability": "nonpayable",
      "type": "function"
    },
    {
      "inputs": [
        {
          "internalType": "address",
          "name": "from",
          "type": "address"
        },
        {
          "internalType": "address",
          "name": "to",
          "type": "address"
        },
        {
          "internalType": "uint256[]",
          "name": "ids",
          "type": "uint256[]"
        },
        {
          "internalType": "uint256[]",
          "name": "amounts",
          "type": "uint256[]"
        },
        {
          "internalType": "bytes",
          "name": "data",
          "type": "bytes"
        }
      ],
      "name": "safeBatchTransferFrom",
      "outputs": [],
      "stateMutability": "nonpayable",
      "type": "function"
    },
    {
      "inputs": [
        {
          "internalType": "address",
          "name": "from",
          "type": "address"
        },
        {
          "internalType": "address",
          "name": "to",
          "type": "address"
        },
        {
          "internalType": "uint256",
          "name": "id",
          "type": "uint256"
        },
        {
          "internalType": "uint256",
          "name": "amount",
          "type": "uint256"
        },
        {
          "internalType": "bytes",
          "name": "data",
          "type": "bytes"
        }
      ],
      "name": "safeTransferFrom",
      "outputs": [],
      "stateMutability": "nonpayable",
      "type": "function"
    },
    {
      "inputs": [
        {
          "internalType": "address",
          "name": "operator",
          "type": "address"
        },
        {
          "internalType": "bool",
          "name": "approved",
          "type": "bool"
        }
      ],
      "name": "setApprovalForAll",
      "outputs": [],
      "stateMutability": "nonpayable",
      "type": "function"
    },
    {
      "inputs": [
        {
          "internalType": "uint256",
          "name": "",
          "type": "uint256"
        }
      ],
      "name": "uri",
      "outputs": [
        {
          "internalType": "string",
          "name": "",
          "type": "string"
        }
      ],
      "stateMutability": "view",
      "type": "function"
    },
    {
      "inputs": [
        {
          "internalType": "string",
          "name": "newuri",
          "type": "string"
        }
      ],
      "name": "setURI",
      "outputs": [],
      "stateMutability": "nonpayable",
      "type": "function"
    },
    {
      "inputs": [
        {
          "internalType": "address",
          "name": "account",
          "type": "address"
        },
        {
          "internalType": "uint256",
          "name": "id",
          "type": "uint256"
        },
        {
          "internalType": "uint256",
          "name": "amount",
          "type": "uint256"
        },
        {
          "internalType": "bytes",
          "name": "data",
          "type": "bytes"
        }
      ],
      "name": "mint",
      "outputs": [],
      "stateMutability": "nonpayable",
      "type": "function"
    },
    {
      "inputs": [
        {
          "internalType": "address",
          "name": "to",
          "type": "address"
        },
        {
          "internalType": "uint256[]",
          "name": "ids",
          "type": "uint256[]"
        },
        {
          "internalType": "uint256[]",
          "name": "amounts",
          "type": "uint256[]"
        },
        {
          "internalType": "bytes",
          "name": "data",
          "type": "bytes"
        }
      ],
      "name": "mintBatch",
      "outputs": [],
      "stateMutability": "nonpayable",
      "type": "function"
    },
    {
      "inputs": [
        {
          "internalType": "bytes4",
          "name": "interfaceId",
          "type": "bytes4"
        }
      ],
      "name": "supportsInterface",
      "outputs": [
        {
          "internalType": "bool",
          "name": "",
          "type": "bool"
        }
      ],
      "stateMutability": "view",
      "type": "function"
    }
  ],
  "bytecode": "0x60806040523480156200001157600080fd5b50604051806020016040528060008152506200003381620000b360201b60201c565b50620000496000801b33620000cf60201b60201c565b6200007b7f7804d923f43a17d325d77e781528e0793b2edd9890ab45fc64efd7b4b427744c33620000cf60201b60201c565b620000ad7f6d696e7465725f726f6c6500000000000000000000000000000000000000000033620000cf60201b60201c565b62000349565b8060029080519060200190620000cb92919062000234565b5050565b620000e18282620001c160201b60201c565b620001bd5760016003600084815260200190815260200160002060000160008373ffffffffffffffffffffffffffffffffffffffff1673ffffffffffffffffffffffffffffffffffffffff16815260200190815260200160002060006101000a81548160ff021916908315150217905550620001626200022c60201b60201c565b73ffffffffffffffffffffffffffffffffffffffff168173ffffffffffffffffffffffffffffffffffffffff16837f2f8788117e7eff1d82e926ec794901d17c78024a50270940304540a733656f0d60405160405180910390a45b5050565b60006003600084815260200190815260200160002060000160008373ffffffffffffffffffffffffffffffffffffffff1673ffffffffffffffffffffffffffffffffffffffff16815260200190815260200160002060009054906101000a900460ff16905092915050565b600033905090565b8280546200024290620002e4565b90600052602060002090601f016020900481019282620002665760008555620002b2565b82601f106200028157805160ff1916838001178555620002b2565b82800160010185558215620002b2579182015b82811115620002b157825182559160200191906001019062000294565b5b509050620002c19190620002c5565b5090565b5b80821115620002e0576000816000905550600101620002c6565b5090565b60006002820490506001821680620002fd57607f821691505b602082108114156200031457620003136200031a565b5b50919050565b7f4e487b7100000000000000000000000000000000000000000000000000000000600052602260045260246000fd5b61447180620003596000396000f3fe608060405234801561001057600080fd5b50600436106101365760003560e01c80636b20c454116100b8578063a22cb4651161007c578063a22cb4651461035b578063d539139314610377578063d547741f14610395578063e985e9c5146103b1578063f242432a146103e1578063f5298aca146103fd57610136565b80636b20c454146102b7578063731133e9146102d35780637f345710146102ef57806391d148541461030d578063a217fddf1461033d57610136565b8063248a9ca3116100ff578063248a9ca3146102035780632eb2c2d6146102335780632f2ff15d1461024f57806336568abe1461026b5780634e1273f41461028757610136565b8062fdd58e1461013b57806301ffc9a71461016b57806302fe53051461019b5780630e89341c146101b75780631f7fdffa146101e7575b600080fd5b61015560048036038101906101509190612fdc565b610419565b60405161016291906139b3565b60405180910390f35b610185600480360381019061018091906131b3565b6104e2565b604051610192919061377b565b60405180910390f35b6101b560048036038101906101b09190613205565b6104f4565b005b6101d160048036038101906101cc9190613246565b61052b565b6040516101de91906137b1565b60405180910390f35b61020160048036038101906101fc9190612ef5565b6105bf565b005b61021d6004803603810190610218919061314e565b6105fc565b60405161022a9190613796565b60405180910390f35b61024d60048036038101906102489190612d28565b61061c565b005b61026960048036038101906102649190613177565b6106bd565b005b61028560048036038101906102809190613177565b6106de565b005b6102a1600480360381019061029c91906130e2565b610761565b6040516102ae9190613722565b60405180910390f35b6102d160048036038101906102cc9190612e76565b610912565b005b6102ed60048036038101906102e89190613067565b6109af565b005b6102f76109ec565b6040516103049190613796565b60405180910390f35b61032760048036038101906103229190613177565b610a10565b604051610334919061377b565b60405180910390f35b610345610a7b565b6040516103529190613796565b60405180910390f35b61037560048036038101906103709190612fa0565b610a82565b005b61037f610a98565b60405161038c9190613796565b60405180910390f35b6103af60048036038101906103aa9190613177565b610abc565b005b6103cb60048036038101906103c69190612cec565b610add565b6040516103d8919061377b565b60405180910390f35b6103fb60048036038101906103f69190612de7565b610b71565b005b61041760048036038101906104129190613018565b610c12565b005b60008073ffffffffffffffffffffffffffffffffffffffff168373ffffffffffffffffffffffffffffffffffffffff16141561048a576040517f08c379a000000000000000000000000000000000000000000000000000000000815260040161048190613833565b60405180910390fd5b60008083815260200190815260200160002060008473ffffffffffffffffffffffffffffffffffffffff1673ffffffffffffffffffffffffffffffffffffffff16815260200190815260200160002054905092915050565b60006104ed82610caf565b9050919050565b7f7804d923f43a17d325d77e781528e0793b2edd9890ab45fc64efd7b4b427744c61051e81610d29565b61052782610d3d565b5050565b60606002805461053a90613cec565b80601f016020809104026020016040519081016040528092919081815260200182805461056690613cec565b80156105b35780601f10610588576101008083540402835291602001916105b3565b820191906000526020600020905b81548152906001019060200180831161059657829003601f168201915b50505050509050919050565b7f6d696e7465725f726f6c650000000000000000000000000000000000000000006105e981610d29565b6105f585858585610d57565b5050505050565b600060036000838152602001908152602001600020600101549050919050565b610624610fd0565b73ffffffffffffffffffffffffffffffffffffffff168573ffffffffffffffffffffffffffffffffffffffff16148061066a575061066985610664610fd0565b610add565b5b6106a9576040517f08c379a00000000000000000000000000000000000000000000000000000000081526004016106a0906138b3565b60405180910390fd5b6106b68585858585610fd8565b5050505050565b6106c6826105fc565b6106cf81610d29565b6106d98383611346565b505050565b6106e6610fd0565b73ffffffffffffffffffffffffffffffffffffffff168173ffffffffffffffffffffffffffffffffffffffff1614610753576040517f08c379a000000000000000000000000000000000000000000000000000000000815260040161074a90613993565b60405180910390fd5b61075d8282611427565b5050565b606081518351146107a7576040517f08c379a000000000000000000000000000000000000000000000000000000000815260040161079e90613933565b60405180910390fd5b6000835167ffffffffffffffff8111156107ea577f4e487b7100000000000000000000000000000000000000000000000000000000600052604160045260246000fd5b6040519080825280602002602001820160405280156108185781602001602082028036833780820191505090505b50905060005b8451811015610907576108b1858281518110610863577f4e487b7100000000000000000000000000000000000000000000000000000000600052603260045260246000fd5b60200260200101518583815181106108a4577f4e487b7100000000000000000000000000000000000000000000000000000000600052603260045260246000fd5b6020026020010151610419565b8282815181106108ea577f4e487b7100000000000000000000000000000000000000000000000000000000600052603260045260246000fd5b6020026020010181815250508061090090613d4f565b905061081e565b508091505092915050565b61091a610fd0565b73ffffffffffffffffffffffffffffffffffffffff168373ffffffffffffffffffffffffffffffffffffffff161480610960575061095f8361095a610fd0565b610add565b5b61099f576040517f08c379a000000000000000000000000000000000000000000000000000000000815260040161099690613873565b60405180910390fd5b6109aa838383611509565b505050565b7f6d696e7465725f726f6c650000000000000000000000000000000000000000006109d981610d29565b6109e585858585611824565b5050505050565b7f7804d923f43a17d325d77e781528e0793b2edd9890ab45fc64efd7b4b427744c81565b60006003600084815260200190815260200160002060000160008373ffffffffffffffffffffffffffffffffffffffff1673ffffffffffffffffffffffffffffffffffffffff16815260200190815260200160002060009054906101000a900460ff16905092915050565b6000801b81565b610a94610a8d610fd0565b83836119d5565b5050565b7f6d696e7465725f726f6c6500000000000000000000000000000000000000000081565b610ac5826105fc565b610ace81610d29565b610ad88383611427565b505050565b6000600160008473ffffffffffffffffffffffffffffffffffffffff1673ffffffffffffffffffffffffffffffffffffffff16815260200190815260200160002060008373ffffffffffffffffffffffffffffffffffffffff1673ffffffffffffffffffffffffffffffffffffffff16815260200190815260200160002060009054906101000a900460ff16905092915050565b610b79610fd0565b73ffffffffffffffffffffffffffffffffffffffff168573ffffffffffffffffffffffffffffffffffffffff161480610bbf5750610bbe85610bb9610fd0565b610add565b5b610bfe576040517f08c379a0000000000000000000000000000000000000000000000000000000008152600401610bf590613873565b60405180910390fd5b610c0b8585858585611b42565b5050505050565b610c1a610fd0565b73ffffffffffffffffffffffffffffffffffffffff168373ffffffffffffffffffffffffffffffffffffffff161480610c605750610c5f83610c5a610fd0565b610add565b5b610c9f576040517f08c379a0000000000000000000000000000000000000000000000000000000008152600401610c9690613873565b60405180910390fd5b610caa838383611dde565b505050565b60007f7965db0b000000000000000000000000000000000000000000000000000000007bffffffffffffffffffffffffffffffffffffffffffffffffffffffff1916827bffffffffffffffffffffffffffffffffffffffffffffffffffffffff19161480610d225750610d2182612025565b5b9050919050565b610d3a81610d35610fd0565b612107565b50565b8060029080519060200190610d539291906129cf565b5050565b600073ffffffffffffffffffffffffffffffffffffffff168473ffffffffffffffffffffffffffffffffffffffff161415610dc7576040517f08c379a0000000000000000000000000000000000000000000000000000000008152600401610dbe90613973565b60405180910390fd5b8151835114610e0b576040517f08c379a0000000000000000000000000000000000000000000000000000000008152600401610e0290613953565b60405180910390fd5b6000610e15610fd0565b9050610e26816000878787876121a4565b60005b8451811015610f2b57838181518110610e6b577f4e487b7100000000000000000000000000000000000000000000000000000000600052603260045260246000fd5b6020026020010151600080878481518110610eaf577f4e487b7100000000000000000000000000000000000000000000000000000000600052603260045260246000fd5b6020026020010151815260200190815260200160002060008873ffffffffffffffffffffffffffffffffffffffff1673ffffffffffffffffffffffffffffffffffffffff1681526020019081526020016000206000828254610f119190613b52565b925050819055508080610f2390613d4f565b915050610e29565b508473ffffffffffffffffffffffffffffffffffffffff16600073ffffffffffffffffffffffffffffffffffffffff168273ffffffffffffffffffffffffffffffffffffffff167f4a39dc06d4c0dbc64b70af90fd698a233a518aa5d07e595d983b8c0526c8f7fb8787604051610fa3929190613744565b60405180910390a4610fba816000878787876121ac565b610fc9816000878787876121b4565b5050505050565b600033905090565b815183511461101c576040517f08c379a000000000000000000000000000000000000000000000000000000000815260040161101390613953565b60405180910390fd5b600073ffffffffffffffffffffffffffffffffffffffff168473ffffffffffffffffffffffffffffffffffffffff16141561108c576040517f08c379a000000000000000000000000000000000000000000000000000000000815260040161108390613893565b60405180910390fd5b6000611096610fd0565b90506110a68187878787876121a4565b60005b84518110156112a35760008582815181106110ed577f4e487b7100000000000000000000000000000000000000000000000000000000600052603260045260246000fd5b602002602001015190506000858381518110611132577f4e487b7100000000000000000000000000000000000000000000000000000000600052603260045260246000fd5b60200260200101519050600080600084815260200190815260200160002060008b73ffffffffffffffffffffffffffffffffffffffff1673ffffffffffffffffffffffffffffffffffffffff168152602001908152602001600020549050818110156111d3576040517f08c379a00000000000000000000000000000000000000000000000000000000081526004016111ca906138f3565b60405180910390fd5b81810360008085815260200190815260200160002060008c73ffffffffffffffffffffffffffffffffffffffff1673ffffffffffffffffffffffffffffffffffffffff168152602001908152602001600020819055508160008085815260200190815260200160002060008b73ffffffffffffffffffffffffffffffffffffffff1673ffffffffffffffffffffffffffffffffffffffff16815260200190815260200160002060008282546112889190613b52565b925050819055505050508061129c90613d4f565b90506110a9565b508473ffffffffffffffffffffffffffffffffffffffff168673ffffffffffffffffffffffffffffffffffffffff168273ffffffffffffffffffffffffffffffffffffffff167f4a39dc06d4c0dbc64b70af90fd698a233a518aa5d07e595d983b8c0526c8f7fb878760405161131a929190613744565b60405180910390a46113308187878787876121ac565b61133e8187878787876121b4565b505050505050565b6113508282610a10565b6114235760016003600084815260200190815260200160002060000160008373ffffffffffffffffffffffffffffffffffffffff1673ffffffffffffffffffffffffffffffffffffffff16815260200190815260200160002060006101000a81548160ff0219169083151502179055506113c8610fd0565b73ffffffffffffffffffffffffffffffffffffffff168173ffffffffffffffffffffffffffffffffffffffff16837f2f8788117e7eff1d82e926ec794901d17c78024a50270940304540a733656f0d60405160405180910390a45b5050565b6114318282610a10565b156115055760006003600084815260200190815260200160002060000160008373ffffffffffffffffffffffffffffffffffffffff1673ffffffffffffffffffffffffffffffffffffffff16815260200190815260200160002060006101000a81548160ff0219169083151502179055506114aa610fd0565b73ffffffffffffffffffffffffffffffffffffffff168173ffffffffffffffffffffffffffffffffffffffff16837ff6391f5c32d9c69d2a47ea670b442974b53935d1edc7fd64eb21e047a839171b60405160405180910390a45b5050565b600073ffffffffffffffffffffffffffffffffffffffff168373ffffffffffffffffffffffffffffffffffffffff161415611579576040517f08c379a0000000000000000000000000000000000000000000000000000000008152600401611570906138d3565b60405180910390fd5b80518251146115bd576040517f08c379a00000000000000000000000000000000000000000000000000000000081526004016115b490613953565b60405180910390fd5b60006115c7610fd0565b90506115e7818560008686604051806020016040528060008152506121a4565b60005b835181101561178057600084828151811061162e577f4e487b7100000000000000000000000000000000000000000000000000000000600052603260045260246000fd5b602002602001015190506000848381518110611673577f4e487b7100000000000000000000000000000000000000000000000000000000600052603260045260246000fd5b60200260200101519050600080600084815260200190815260200160002060008973ffffffffffffffffffffffffffffffffffffffff1673ffffffffffffffffffffffffffffffffffffffff16815260200190815260200160002054905081811015611714576040517f08c379a000000000000000000000000000000000000000000000000000000000815260040161170b90613853565b60405180910390fd5b81810360008085815260200190815260200160002060008a73ffffffffffffffffffffffffffffffffffffffff1673ffffffffffffffffffffffffffffffffffffffff16815260200190815260200160002081905550505050808061177890613d4f565b9150506115ea565b50600073ffffffffffffffffffffffffffffffffffffffff168473ffffffffffffffffffffffffffffffffffffffff168273ffffffffffffffffffffffffffffffffffffffff167f4a39dc06d4c0dbc64b70af90fd698a233a518aa5d07e595d983b8c0526c8f7fb86866040516117f8929190613744565b60405180910390a461181e818560008686604051806020016040528060008152506121ac565b50505050565b600073ffffffffffffffffffffffffffffffffffffffff168473ffffffffffffffffffffffffffffffffffffffff161415611894576040517f08c379a000000000000000000000000000000000000000000000000000000000815260040161188b90613973565b60405180910390fd5b600061189e610fd0565b905060006118ab8561239b565b905060006118b88561239b565b90506118c9836000898585896121a4565b8460008088815260200190815260200160002060008973ffffffffffffffffffffffffffffffffffffffff1673ffffffffffffffffffffffffffffffffffffffff16815260200190815260200160002060008282546119289190613b52565b925050819055508673ffffffffffffffffffffffffffffffffffffffff16600073ffffffffffffffffffffffffffffffffffffffff168473ffffffffffffffffffffffffffffffffffffffff167fc3d58168c5ae7397731d063d5bbf3d657854427343f4c083240f7aacaa2d0f6289896040516119a69291906139ce565b60405180910390a46119bd836000898585896121ac565b6119cc83600089898989612461565b50505050505050565b8173ffffffffffffffffffffffffffffffffffffffff168373ffffffffffffffffffffffffffffffffffffffff161415611a44576040517f08c379a0000000000000000000000000000000000000000000000000000000008152600401611a3b90613913565b60405180910390fd5b80600160008573ffffffffffffffffffffffffffffffffffffffff1673ffffffffffffffffffffffffffffffffffffffff16815260200190815260200160002060008473ffffffffffffffffffffffffffffffffffffffff1673ffffffffffffffffffffffffffffffffffffffff16815260200190815260200160002060006101000a81548160ff0219169083151502179055508173ffffffffffffffffffffffffffffffffffffffff168373ffffffffffffffffffffffffffffffffffffffff167f17307eab39ab6107e8899845ad3d59bd9653f200f220920489ca2b5937696c3183604051611b35919061377b565b60405180910390a3505050565b600073ffffffffffffffffffffffffffffffffffffffff168473ffffffffffffffffffffffffffffffffffffffff161415611bb2576040517f08c379a0000000000000000000000000000000000000000000000000000000008152600401611ba990613893565b60405180910390fd5b6000611bbc610fd0565b90506000611bc98561239b565b90506000611bd68561239b565b9050611be68389898585896121a4565b600080600088815260200190815260200160002060008a73ffffffffffffffffffffffffffffffffffffffff1673ffffffffffffffffffffffffffffffffffffffff16815260200190815260200160002054905085811015611c7d576040517f08c379a0000000000000000000000000000000000000000000000000000000008152600401611c74906138f3565b60405180910390fd5b85810360008089815260200190815260200160002060008b73ffffffffffffffffffffffffffffffffffffffff1673ffffffffffffffffffffffffffffffffffffffff168152602001908152602001600020819055508560008089815260200190815260200160002060008a73ffffffffffffffffffffffffffffffffffffffff1673ffffffffffffffffffffffffffffffffffffffff1681526020019081526020016000206000828254611d329190613b52565b925050819055508773ffffffffffffffffffffffffffffffffffffffff168973ffffffffffffffffffffffffffffffffffffffff168573ffffffffffffffffffffffffffffffffffffffff167fc3d58168c5ae7397731d063d5bbf3d657854427343f4c083240f7aacaa2d0f628a8a604051611daf9291906139ce565b60405180910390a4611dc5848a8a86868a6121ac565b611dd3848a8a8a8a8a612461565b505050505050505050565b600073ffffffffffffffffffffffffffffffffffffffff168373ffffffffffffffffffffffffffffffffffffffff161415611e4e576040517f08c379a0000000000000000000000000000000000000000000000000000000008152600401611e45906138d3565b60405180910390fd5b6000611e58610fd0565b90506000611e658461239b565b90506000611e728461239b565b9050611e92838760008585604051806020016040528060008152506121a4565b600080600087815260200190815260200160002060008873ffffffffffffffffffffffffffffffffffffffff1673ffffffffffffffffffffffffffffffffffffffff16815260200190815260200160002054905084811015611f29576040517f08c379a0000000000000000000000000000000000000000000000000000000008152600401611f2090613853565b60405180910390fd5b84810360008088815260200190815260200160002060008973ffffffffffffffffffffffffffffffffffffffff1673ffffffffffffffffffffffffffffffffffffffff16815260200190815260200160002081905550600073ffffffffffffffffffffffffffffffffffffffff168773ffffffffffffffffffffffffffffffffffffffff168573ffffffffffffffffffffffffffffffffffffffff167fc3d58168c5ae7397731d063d5bbf3d657854427343f4c083240f7aacaa2d0f628989604051611ff69291906139ce565b60405180910390a461201c848860008686604051806020016040528060008152506121ac565b50505050505050565b60007fd9b67a26000000000000000000000000000000000000000000000000000000007bffffffffffffffffffffffffffffffffffffffffffffffffffffffff1916827bffffffffffffffffffffffffffffffffffffffffffffffffffffffff191614806120f057507f0e89341c000000000000000000000000000000000000000000000000000000007bffffffffffffffffffffffffffffffffffffffffffffffffffffffff1916827bffffffffffffffffffffffffffffffffffffffffffffffffffffffff1916145b8061210057506120ff82612648565b5b9050919050565b6121118282610a10565b6121a0576121368173ffffffffffffffffffffffffffffffffffffffff1660146126b2565b6121448360001c60206126b2565b604051602001612155929190613626565b6040516020818303038152906040526040517f08c379a000000000000000000000000000000000000000000000000000000000815260040161219791906137b1565b60405180910390fd5b5050565b505050505050565b505050505050565b6121d38473ffffffffffffffffffffffffffffffffffffffff166129ac565b15612393578373ffffffffffffffffffffffffffffffffffffffff1663bc197c8187878686866040518663ffffffff1660e01b8152600401612219959493929190613660565b602060405180830381600087803b15801561223357600080fd5b505af192505050801561226457506040513d601f19601f8201168201806040525081019061226191906131dc565b60015b61230a57612270613e25565b806308c379a014156122cd5750612285614332565b8061229057506122cf565b806040517f08c379a00000000000000000000000000000000000000000000000000000000081526004016122c491906137b1565b60405180910390fd5b505b6040517f08c379a0000000000000000000000000000000000000000000000000000000008152600401612301906137d3565b60405180910390fd5b63bc197c8160e01b7bffffffffffffffffffffffffffffffffffffffffffffffffffffffff1916817bffffffffffffffffffffffffffffffffffffffffffffffffffffffff191614612391576040517f08c379a000000000000000000000000000000000000000000000000000000000815260040161238890613813565b60405180910390fd5b505b505050505050565b60606000600167ffffffffffffffff8111156123e0577f4e487b7100000000000000000000000000000000000000000000000000000000600052604160045260246000fd5b60405190808252806020026020018201604052801561240e5781602001602082028036833780820191505090505b509050828160008151811061244c577f4e487b7100000000000000000000000000000000000000000000000000000000600052603260045260246000fd5b60200260200101818152505080915050919050565b6124808473ffffffffffffffffffffffffffffffffffffffff166129ac565b15612640578373ffffffffffffffffffffffffffffffffffffffff1663f23a6e6187878686866040518663ffffffff1660e01b81526004016124c69594939291906136c8565b602060405180830381600087803b1580156124e057600080fd5b505af192505050801561251157506040513d601f19601f8201168201806040525081019061250e91906131dc565b60015b6125b75761251d613e25565b806308c379a0141561257a5750612532614332565b8061253d575061257c565b806040517f08c379a000000000000000000000000000000000000000000000000000000000815260040161257191906137b1565b60405180910390fd5b505b6040517f08c379a00000000000000000000000000000000000000000000000000000000081526004016125ae906137d3565b60405180910390fd5b63f23a6e6160e01b7bffffffffffffffffffffffffffffffffffffffffffffffffffffffff1916817bffffffffffffffffffffffffffffffffffffffffffffffffffffffff19161461263e576040517f08c379a000000000000000000000000000000000000000000000000000000000815260040161263590613813565b60405180910390fd5b505b505050505050565b60007f01ffc9a7000000000000000000000000000000000000000000000000000000007bffffffffffffffffffffffffffffffffffffffffffffffffffffffff1916827bffffffffffffffffffffffffffffffffffffffffffffffffffffffff1916149050919050565b6060600060028360026126c59190613ba8565b6126cf9190613b52565b67ffffffffffffffff81111561270e577f4e487b7100000000000000000000000000000000000000000000000000000000600052604160045260246000fd5b6040519080825280601f01601f1916602001820160405280156127405781602001600182028036833780820191505090505b5090507f30000000000000000000000000000000000000000000000000000000000000008160008151811061279e577f4e487b7100000000000000000000000000000000000000000000000000000000600052603260045260246000fd5b60200101907effffffffffffffffffffffffffffffffffffffffffffffffffffffffffffff1916908160001a9053507f780000000000000000000000000000000000000000000000000000000000000081600181518110612828577f4e487b7100000000000000000000000000000000000000000000000000000000600052603260045260246000fd5b60200101907effffffffffffffffffffffffffffffffffffffffffffffffffffffffffffff1916908160001a905350600060018460026128689190613ba8565b6128729190613b52565b90505b600181111561295e577f3031323334353637383961626364656600000000000000000000000000000000600f8616601081106128da577f4e487b7100000000000000000000000000000000000000000000000000000000600052603260045260246000fd5b1a60f81b828281518110612917577f4e487b7100000000000000000000000000000000000000000000000000000000600052603260045260246000fd5b60200101907effffffffffffffffffffffffffffffffffffffffffffffffffffffffffffff1916908160001a905350600485901c94508061295790613cc2565b9050612875565b50600084146129a2576040517f08c379a0000000000000000000000000000000000000000000000000000000008152600401612999906137f3565b60405180910390fd5b8091505092915050565b6000808273ffffffffffffffffffffffffffffffffffffffff163b119050919050565b8280546129db90613cec565b90600052602060002090601f0160209004810192826129fd5760008555612a44565b82601f10612a1657805160ff1916838001178555612a44565b82800160010185558215612a44579182015b82811115612a43578251825591602001919060010190612a28565b5b509050612a519190612a55565b5090565b5b80821115612a6e576000816000905550600101612a56565b5090565b6000612a85612a8084613a1c565b6139f7565b90508083825260208201905082856020860282011115612aa457600080fd5b60005b85811015612ad45781612aba8882612bc6565b845260208401935060208301925050600181019050612aa7565b5050509392505050565b6000612af1612aec84613a48565b6139f7565b90508083825260208201905082856020860282011115612b1057600080fd5b60005b85811015612b405781612b268882612cd7565b845260208401935060208301925050600181019050612b13565b5050509392505050565b6000612b5d612b5884613a74565b6139f7565b905082815260208101848484011115612b7557600080fd5b612b80848285613c80565b509392505050565b6000612b9b612b9684613aa5565b6139f7565b905082815260208101848484011115612bb357600080fd5b612bbe848285613c80565b509392505050565b600081359050612bd5816143c8565b92915050565b600082601f830112612bec57600080fd5b8135612bfc848260208601612a72565b91505092915050565b600082601f830112612c1657600080fd5b8135612c26848260208601612ade565b91505092915050565b600081359050612c3e816143df565b92915050565b600081359050612c53816143f6565b92915050565b600081359050612c688161440d565b92915050565b600081519050612c7d8161440d565b92915050565b600082601f830112612c9457600080fd5b8135612ca4848260208601612b4a565b91505092915050565b600082601f830112612cbe57600080fd5b8135612cce848260208601612b88565b91505092915050565b600081359050612ce681614424565b92915050565b60008060408385031215612cff57600080fd5b6000612d0d85828601612bc6565b9250506020612d1e85828601612bc6565b9150509250929050565b600080600080600060a08688031215612d4057600080fd5b6000612d4e88828901612bc6565b9550506020612d5f88828901612bc6565b945050604086013567ffffffffffffffff811115612d7c57600080fd5b612d8888828901612c05565b935050606086013567ffffffffffffffff811115612da557600080fd5b612db188828901612c05565b925050608086013567ffffffffffffffff811115612dce57600080fd5b612dda88828901612c83565b9150509295509295909350565b600080600080600060a08688031215612dff57600080fd5b6000612e0d88828901612bc6565b9550506020612e1e88828901612bc6565b9450506040612e2f88828901612cd7565b9350506060612e4088828901612cd7565b925050608086013567ffffffffffffffff811115612e5d57600080fd5b612e6988828901612c83565b9150509295509295909350565b600080600060608486031215612e8b57600080fd5b6000612e9986828701612bc6565b935050602084013567ffffffffffffffff811115612eb657600080fd5b612ec286828701612c05565b925050604084013567ffffffffffffffff811115612edf57600080fd5b612eeb86828701612c05565b9150509250925092565b60008060008060808587031215612f0b57600080fd5b6000612f1987828801612bc6565b945050602085013567ffffffffffffffff811115612f3657600080fd5b612f4287828801612c05565b935050604085013567ffffffffffffffff811115612f5f57600080fd5b612f6b87828801612c05565b925050606085013567ffffffffffffffff811115612f8857600080fd5b612f9487828801612c83565b91505092959194509250565b60008060408385031215612fb357600080fd5b6000612fc185828601612bc6565b9250506020612fd285828601612c2f565b9150509250929050565b60008060408385031215612fef57600080fd5b6000612ffd85828601612bc6565b925050602061300e85828601612cd7565b9150509250929050565b60008060006060848603121561302d57600080fd5b600061303b86828701612bc6565b935050602061304c86828701612cd7565b925050604061305d86828701612cd7565b9150509250925092565b6000806000806080858703121561307d57600080fd5b600061308b87828801612bc6565b945050602061309c87828801612cd7565b93505060406130ad87828801612cd7565b925050606085013567ffffffffffffffff8111156130ca57600080fd5b6130d687828801612c83565b91505092959194509250565b600080604083850312156130f557600080fd5b600083013567ffffffffffffffff81111561310f57600080fd5b61311b85828601612bdb565b925050602083013567ffffffffffffffff81111561313857600080fd5b61314485828601612c05565b9150509250929050565b60006020828403121561316057600080fd5b600061316e84828501612c44565b91505092915050565b6000806040838503121561318a57600080fd5b600061319885828601612c44565b92505060206131a985828601612bc6565b9150509250929050565b6000602082840312156131c557600080fd5b60006131d384828501612c59565b91505092915050565b6000602082840312156131ee57600080fd5b60006131fc84828501612c6e565b91505092915050565b60006020828403121561321757600080fd5b600082013567ffffffffffffffff81111561323157600080fd5b61323d84828501612cad565b91505092915050565b60006020828403121561325857600080fd5b600061326684828501612cd7565b91505092915050565b600061327b8383613608565b60208301905092915050565b61329081613c02565b82525050565b60006132a182613ae6565b6132ab8185613b14565b93506132b683613ad6565b8060005b838110156132e75781516132ce888261326f565b97506132d983613b07565b9250506001810190506132ba565b5085935050505092915050565b6132fd81613c14565b82525050565b61330c81613c20565b82525050565b600061331d82613af1565b6133278185613b25565b9350613337818560208601613c8f565b61334081613e47565b840191505092915050565b600061335682613afc565b6133608185613b36565b9350613370818560208601613c8f565b61337981613e47565b840191505092915050565b600061338f82613afc565b6133998185613b47565b93506133a9818560208601613c8f565b80840191505092915050565b60006133c2603483613b36565b91506133cd82613e65565b604082019050919050565b60006133e5602083613b36565b91506133f082613eb4565b602082019050919050565b6000613408602883613b36565b915061341382613edd565b604082019050919050565b600061342b602b83613b36565b915061343682613f2c565b604082019050919050565b600061344e602483613b36565b915061345982613f7b565b604082019050919050565b6000613471602983613b36565b915061347c82613fca565b604082019050919050565b6000613494602583613b36565b915061349f82614019565b604082019050919050565b60006134b7603283613b36565b91506134c282614068565b604082019050919050565b60006134da602383613b36565b91506134e5826140b7565b604082019050919050565b60006134fd602a83613b36565b915061350882614106565b604082019050919050565b6000613520601783613b47565b915061352b82614155565b601782019050919050565b6000613543602983613b36565b915061354e8261417e565b604082019050919050565b6000613566602983613b36565b9150613571826141cd565b604082019050919050565b6000613589602883613b36565b91506135948261421c565b604082019050919050565b60006135ac602183613b36565b91506135b78261426b565b604082019050919050565b60006135cf601183613b47565b91506135da826142ba565b601182019050919050565b60006135f2602f83613b36565b91506135fd826142e3565b604082019050919050565b61361181613c76565b82525050565b61362081613c76565b82525050565b600061363182613513565b915061363d8285613384565b9150613648826135c2565b91506136548284613384565b91508190509392505050565b600060a0820190506136756000830188613287565b6136826020830187613287565b81810360408301526136948186613296565b905081810360608301526136a88185613296565b905081810360808301526136bc8184613312565b90509695505050505050565b600060a0820190506136dd6000830188613287565b6136ea6020830187613287565b6136f76040830186613617565b6137046060830185613617565b81810360808301526137168184613312565b90509695505050505050565b6000602082019050818103600083015261373c8184613296565b905092915050565b6000604082019050818103600083015261375e8185613296565b905081810360208301526137728184613296565b90509392505050565b600060208201905061379060008301846132f4565b92915050565b60006020820190506137ab6000830184613303565b92915050565b600060208201905081810360008301526137cb818461334b565b905092915050565b600060208201905081810360008301526137ec816133b5565b9050919050565b6000602082019050818103600083015261380c816133d8565b9050919050565b6000602082019050818103600083015261382c816133fb565b9050919050565b6000602082019050818103600083015261384c8161341e565b9050919050565b6000602082019050818103600083015261386c81613441565b9050919050565b6000602082019050818103600083015261388c81613464565b9050919050565b600060208201905081810360008301526138ac81613487565b9050919050565b600060208201905081810360008301526138cc816134aa565b9050919050565b600060208201905081810360008301526138ec816134cd565b9050919050565b6000602082019050818103600083015261390c816134f0565b9050919050565b6000602082019050818103600083015261392c81613536565b9050919050565b6000602082019050818103600083015261394c81613559565b9050919050565b6000602082019050818103600083015261396c8161357c565b9050919050565b6000602082019050818103600083015261398c8161359f565b9050919050565b600060208201905081810360008301526139ac816135e5565b9050919050565b60006020820190506139c86000830184613617565b92915050565b60006040820190506139e36000830185613617565b6139f06020830184613617565b9392505050565b6000613a01613a12565b9050613a0d8282613d1e565b919050565b6000604051905090565b600067ffffffffffffffff821115613a3757613a36613df6565b5b602082029050602081019050919050565b600067ffffffffffffffff821115613a6357613a62613df6565b5b602082029050602081019050919050565b600067ffffffffffffffff821115613a8f57613a8e613df6565b5b613a9882613e47565b9050602081019050919050565b600067ffffffffffffffff821115613ac057613abf613df6565b5b613ac982613e47565b9050602081019050919050565b6000819050602082019050919050565b600081519050919050565b600081519050919050565b600081519050919050565b6000602082019050919050565b600082825260208201905092915050565b600082825260208201905092915050565b600082825260208201905092915050565b600081905092915050565b6000613b5d82613c76565b9150613b6883613c76565b9250827fffffffffffffffffffffffffffffffffffffffffffffffffffffffffffffffff03821115613b9d57613b9c613d98565b5b828201905092915050565b6000613bb382613c76565b9150613bbe83613c76565b9250817fffffffffffffffffffffffffffffffffffffffffffffffffffffffffffffffff0483118215151615613bf757613bf6613d98565b5b828202905092915050565b6000613c0d82613c56565b9050919050565b60008115159050919050565b6000819050919050565b60007fffffffff0000000000000000000000000000000000000000000000000000000082169050919050565b600073ffffffffffffffffffffffffffffffffffffffff82169050919050565b6000819050919050565b82818337600083830152505050565b60005b83811015613cad578082015181840152602081019050613c92565b83811115613cbc576000848401525b50505050565b6000613ccd82613c76565b91506000821415613ce157613ce0613d98565b5b600182039050919050565b60006002820490506001821680613d0457607f821691505b60208210811415613d1857613d17613dc7565b5b50919050565b613d2782613e47565b810181811067ffffffffffffffff82111715613d4657613d45613df6565b5b80604052505050565b6000613d5a82613c76565b91507fffffffffffffffffffffffffffffffffffffffffffffffffffffffffffffffff821415613d8d57613d8c613d98565b5b600182019050919050565b7f4e487b7100000000000000000000000000000000000000000000000000000000600052601160045260246000fd5b7f4e487b7100000000000000000000000000000000000000000000000000000000600052602260045260246000fd5b7f4e487b7100000000000000000000000000000000000000000000000000000000600052604160045260246000fd5b600060033d1115613e445760046000803e613e41600051613e58565b90505b90565b6000601f19601f8301169050919050565b60008160e01c9050919050565b7f455243313135353a207472616e7366657220746f206e6f6e204552433131353560008201527f526563656976657220696d706c656d656e746572000000000000000000000000602082015250565b7f537472696e67733a20686578206c656e67746820696e73756666696369656e74600082015250565b7f455243313135353a204552433131353552656365697665722072656a6563746560008201527f6420746f6b656e73000000000000000000000000000000000000000000000000602082015250565b7f455243313135353a2062616c616e636520717565727920666f7220746865207a60008201527f65726f2061646472657373000000000000000000000000000000000000000000602082015250565b7f455243313135353a206275726e20616d6f756e7420657863656564732062616c60008201527f616e636500000000000000000000000000000000000000000000000000000000602082015250565b7f455243313135353a2063616c6c6572206973206e6f74206f776e6572206e6f7260008201527f20617070726f7665640000000000000000000000000000000000000000000000602082015250565b7f455243313135353a207472616e7366657220746f20746865207a65726f20616460008201527f6472657373000000000000000000000000000000000000000000000000000000602082015250565b7f455243313135353a207472616e736665722063616c6c6572206973206e6f742060008201527f6f776e6572206e6f7220617070726f7665640000000000000000000000000000602082015250565b7f455243313135353a206275726e2066726f6d20746865207a65726f206164647260008201527f6573730000000000000000000000000000000000000000000000000000000000602082015250565b7f455243313135353a20696e73756666696369656e742062616c616e636520666f60008201527f72207472616e7366657200000000000000000000000000000000000000000000602082015250565b7f416363657373436f6e74726f6c3a206163636f756e7420000000000000000000600082015250565b7f455243313135353a2073657474696e6720617070726f76616c2073746174757360008201527f20666f722073656c660000000000000000000000000000000000000000000000602082015250565b7f455243313135353a206163636f756e747320616e6420696473206c656e67746860008201527f206d69736d617463680000000000000000000000000000000000000000000000602082015250565b7f455243313135353a2069647320616e6420616d6f756e7473206c656e6774682060008201527f6d69736d61746368000000000000000000000000000000000000000000000000602082015250565b7f455243313135353a206d696e7420746f20746865207a65726f2061646472657360008201527f7300000000000000000000000000000000000000000000000000000000000000602082015250565b7f206973206d697373696e6720726f6c6520000000000000000000000000000000600082015250565b7f416363657373436f6e74726f6c3a2063616e206f6e6c792072656e6f756e636560008201527f20726f6c657320666f722073656c660000000000000000000000000000000000602082015250565b600060443d1015614342576143c5565b61434a613a12565b60043d036004823e80513d602482011167ffffffffffffffff821117156143725750506143c5565b808201805167ffffffffffffffff81111561439057505050506143c5565b80602083010160043d0385018111156143ad5750505050506143c5565b6143bc82602001850186613d1e565b82955050505050505b90565b6143d181613c02565b81146143dc57600080fd5b50565b6143e881613c14565b81146143f357600080fd5b50565b6143ff81613c20565b811461440a57600080fd5b50565b61441681613c2a565b811461442157600080fd5b50565b61442d81613c76565b811461443857600080fd5b5056fea26469706673582212208971eca5e4e3ec17e29254ecf7ccd518356b7ca2dee222b6de12b950f82a354464736f6c63430008040033",
  "immutableReferences": {},
  "source": "/**\n * \n *\n *\n\n  /$$$$$$  /$$     /$$ /$$   /$$  /$$$$$$  /$$   /$$\n /$$__  $$|  $$   /$$/| $$  | $$ /$$__  $$| $$  | $$\n| $$  \\ $$ \\  $$ /$$/ | $$  | $$| $$  \\__/| $$  | $$\n| $$$$$$$$  \\  $$$$/  | $$  | $$|  $$$$$$ | $$$$$$$$\n| $$__  $$   \\  $$/   | $$  | $$ \\____  $$| $$__  $$\n| $$  | $$    | $$    | $$  | $$ /$$  \\ $$| $$  | $$\n| $$  | $$    | $$    |  $$$$$$/|  $$$$$$/| $$  | $$\n|__/  |__/    |__/     \\______/  \\______/ |__/  |__/\n                                                \n /$$$$$$$$ /$$$$$$$   /$$$$$$          /$$     /$$   /$$$$$$$  /$$$$$$$ \n| $$_____/| $$__  $$ /$$__  $$       /$$$$   /$$$$  | $$____/ | $$____/ \n| $$      | $$  \\ $$| $$  \\__/      |_  $$  |_  $$  | $$      | $$      \n| $$$$$   | $$$$$$$/| $$              | $$    | $$  | $$$$$$$ | $$$$$$$ \n| $$__/   | $$__  $$| $$              | $$    | $$  |_____  $$|_____  $$\n| $$      | $$  \\ $$| $$    $$        | $$    | $$   /$$  \\ $$ /$$  \\ $$\n| $$$$$$$$| $$  | $$|  $$$$$$/       /$$$$$$ /$$$$$$|  $$$$$$/|  $$$$$$/\n|________/|__/  |__/ \\______/       |______/|______/ \\______/  \\______/ \n                                                                        \n                                                                        \n                                                                                                                      \n */\n// SPDX-License-Identifier: MIT\npragma solidity ^0.8.4;\n\nimport \"@openzeppelin/contracts/token/ERC1155/ERC1155.sol\";\nimport \"@openzeppelin/contracts/access/AccessControl.sol\";\nimport \"@openzeppelin/contracts/token/ERC1155/extensions/ERC1155Burnable.sol\";\n\ncontract ERC1155A is ERC1155, AccessControl, ERC1155Burnable {\n    bytes32 public constant URI_SETTER_ROLE = keccak256(\"URI_SETTER_ROLE\");\n    bytes32 public constant MINTER_ROLE = (\"minter_role\");\n\n    constructor() ERC1155(\"\") {\n        _grantRole(DEFAULT_ADMIN_ROLE, msg.sender);\n        _grantRole(URI_SETTER_ROLE, msg.sender);\n        _grantRole(MINTER_ROLE, msg.sender);\n    }\n\n    function setURI(string memory newuri) public onlyRole(URI_SETTER_ROLE) {\n        _setURI(newuri);\n    }\n\n    function mint(address account, uint256 id, uint256 amount, bytes memory data)\n        public\n        onlyRole(MINTER_ROLE)\n    {\n        _mint(account, id, amount, data);\n    }\n\n    function mintBatch(address to, uint256[] memory ids, uint256[] memory amounts, bytes memory data)\n        public\n        onlyRole(MINTER_ROLE)\n    {\n        _mintBatch(to, ids, amounts, data);\n    }\n\n    // The following functions are overrides required by Solidity.\n\n    function supportsInterface(bytes4 interfaceId)\n        public\n        view\n        override(ERC1155, AccessControl)\n        returns (bool)\n    {\n        return super.supportsInterface(interfaceId);\n    }\n}",
  "sourcePath": "/home/ayushsharma/Desktop/Cross Chain NFts/contracts/ERC1155.sol",
  "compiler": {
    "name": "solc",
    "version": "0.8.4+commit.c7e474f2.Emscripten.clang"
  },
  "schemaVersion": "3.4.7",
  "updatedAt": "2022-06-15T05:45:51.747Z",
  "devdoc": {
    "kind": "dev",
    "methods": {
      "balanceOf(address,uint256)": {
        "details": "See {IERC1155-balanceOf}. Requirements: - `account` cannot be the zero address."
      },
      "balanceOfBatch(address[],uint256[])": {
        "details": "See {IERC1155-balanceOfBatch}. Requirements: - `accounts` and `ids` must have the same length."
      },
      "getRoleAdmin(bytes32)": {
        "details": "Returns the admin role that controls `role`. See {grantRole} and {revokeRole}. To change a role's admin, use {_setRoleAdmin}."
      },
      "grantRole(bytes32,address)": {
        "details": "Grants `role` to `account`. If `account` had not been already granted `role`, emits a {RoleGranted} event. Requirements: - the caller must have ``role``'s admin role."
      },
      "hasRole(bytes32,address)": {
        "details": "Returns `true` if `account` has been granted `role`."
      },
      "isApprovedForAll(address,address)": {
        "details": "See {IERC1155-isApprovedForAll}."
      },
      "renounceRole(bytes32,address)": {
        "details": "Revokes `role` from the calling account. Roles are often managed via {grantRole} and {revokeRole}: this function's purpose is to provide a mechanism for accounts to lose their privileges if they are compromised (such as when a trusted device is misplaced). If the calling account had been revoked `role`, emits a {RoleRevoked} event. Requirements: - the caller must be `account`."
      },
      "revokeRole(bytes32,address)": {
        "details": "Revokes `role` from `account`. If `account` had been granted `role`, emits a {RoleRevoked} event. Requirements: - the caller must have ``role``'s admin role."
      },
      "safeBatchTransferFrom(address,address,uint256[],uint256[],bytes)": {
        "details": "See {IERC1155-safeBatchTransferFrom}."
      },
      "safeTransferFrom(address,address,uint256,uint256,bytes)": {
        "details": "See {IERC1155-safeTransferFrom}."
      },
      "setApprovalForAll(address,bool)": {
        "details": "See {IERC1155-setApprovalForAll}."
      },
      "uri(uint256)": {
        "details": "See {IERC1155MetadataURI-uri}. This implementation returns the same URI for *all* token types. It relies on the token type ID substitution mechanism https://eips.ethereum.org/EIPS/eip-1155#metadata[defined in the EIP]. Clients calling this function must replace the `\\{id\\}` substring with the actual token type ID."
      }
    },
    "version": 1
  },
  "userdoc": {
    "kind": "user",
    "methods": {},
    "version": 1
  }
}