{
  "contractName": "NFTContract",
  "abi": [
    {
      "inputs": [
        {
          "internalType": "string",
          "name": "uri",
          "type": "string"
        }
      ],
      "stateMutability": "nonpayable",
      "type": "constructor"
    },
    {
      "anonymous": false,
      "inputs": [
        {
          "indexed": true,
          "internalType": "address",
          "name": "account",
          "type": "address"
        },
        {
          "indexed": true,
          "internalType": "address",
          "name": "operator",
          "type": "address"
        },
        {
          "indexed": false,
          "internalType": "bool",
          "name": "approved",
          "type": "bool"
        }
      ],
      "name": "ApprovalForAll",
      "type": "event"
    },
    {
      "anonymous": false,
      "inputs": [
        {
          "indexed": true,
          "internalType": "address",
          "name": "previousOwner",
          "type": "address"
        },
        {
          "indexed": true,
          "internalType": "address",
          "name": "newOwner",
          "type": "address"
        }
      ],
      "name": "OwnershipTransferred",
      "type": "event"
    },
    {
      "anonymous": false,
      "inputs": [
        {
          "indexed": true,
          "internalType": "address",
          "name": "operator",
          "type": "address"
        },
        {
          "indexed": true,
          "internalType": "address",
          "name": "from",
          "type": "address"
        },
        {
          "indexed": true,
          "internalType": "address",
          "name": "to",
          "type": "address"
        },
        {
          "indexed": false,
          "internalType": "uint256[]",
          "name": "ids",
          "type": "uint256[]"
        },
        {
          "indexed": false,
          "internalType": "uint256[]",
          "name": "values",
          "type": "uint256[]"
        }
      ],
      "name": "TransferBatch",
      "type": "event"
    },
    {
      "anonymous": false,
      "inputs": [
        {
          "indexed": true,
          "internalType": "address",
          "name": "operator",
          "type": "address"
        },
        {
          "indexed": true,
          "internalType": "address",
          "name": "from",
          "type": "address"
        },
        {
          "indexed": true,
          "internalType": "address",
          "name": "to",
          "type": "address"
        },
        {
          "indexed": false,
          "internalType": "uint256",
          "name": "id",
          "type": "uint256"
        },
        {
          "indexed": false,
          "internalType": "uint256",
          "name": "value",
          "type": "uint256"
        }
      ],
      "name": "TransferSingle",
      "type": "event"
    },
    {
      "anonymous": false,
      "inputs": [
        {
          "indexed": false,
          "internalType": "string",
          "name": "value",
          "type": "string"
        },
        {
          "indexed": true,
          "internalType": "uint256",
          "name": "id",
          "type": "uint256"
        }
      ],
      "name": "URI",
      "type": "event"
    },
    {
      "inputs": [],
      "name": "ARTWORK",
      "outputs": [
        {
          "internalType": "uint256",
          "name": "",
          "type": "uint256"
        }
      ],
      "stateMutability": "view",
      "type": "function"
    },
    {
      "inputs": [],
      "name": "PHOTO",
      "outputs": [
        {
          "internalType": "uint256",
          "name": "",
          "type": "uint256"
        }
      ],
      "stateMutability": "view",
      "type": "function"
    },
    {
      "inputs": [
        {
          "internalType": "address",
          "name": "account",
          "type": "address"
        },
        {
          "internalType": "uint256",
          "name": "id",
          "type": "uint256"
        }
      ],
      "name": "balanceOf",
      "outputs": [
        {
          "internalType": "uint256",
          "name": "",
          "type": "uint256"
        }
      ],
      "stateMutability": "view",
      "type": "function"
    },
    {
      "inputs": [
        {
          "internalType": "address[]",
          "name": "accounts",
          "type": "address[]"
        },
        {
          "internalType": "uint256[]",
          "name": "ids",
          "type": "uint256[]"
        }
      ],
      "name": "balanceOfBatch",
      "outputs": [
        {
          "internalType": "uint256[]",
          "name": "",
          "type": "uint256[]"
        }
      ],
      "stateMutability": "view",
      "type": "function"
    },
    {
      "inputs": [
        {
          "internalType": "address",
          "name": "account",
          "type": "address"
        },
        {
          "internalType": "address",
          "name": "operator",
          "type": "address"
        }
      ],
      "name": "isApprovedForAll",
      "outputs": [
        {
          "internalType": "bool",
          "name": "",
          "type": "bool"
        }
      ],
      "stateMutability": "view",
      "type": "function"
    },
    {
      "inputs": [],
      "name": "owner",
      "outputs": [
        {
          "internalType": "address",
          "name": "",
          "type": "address"
        }
      ],
      "stateMutability": "view",
      "type": "function"
    },
    {
      "inputs": [],
      "name": "renounceOwnership",
      "outputs": [],
      "stateMutability": "nonpayable",
      "type": "function"
    },
    {
      "inputs": [
        {
          "internalType": "address",
          "name": "from",
          "type": "address"
        },
        {
          "internalType": "address",
          "name": "to",
          "type": "address"
        },
        {
          "internalType": "uint256[]",
          "name": "ids",
          "type": "uint256[]"
        },
        {
          "internalType": "uint256[]",
          "name": "amounts",
          "type": "uint256[]"
        },
        {
          "internalType": "bytes",
          "name": "data",
          "type": "bytes"
        }
      ],
      "name": "safeBatchTransferFrom",
      "outputs": [],
      "stateMutability": "nonpayable",
      "type": "function"
    },
    {
      "inputs": [
        {
          "internalType": "address",
          "name": "from",
          "type": "address"
        },
        {
          "internalType": "address",
          "name": "to",
          "type": "address"
        },
        {
          "internalType": "uint256",
          "name": "id",
          "type": "uint256"
        },
        {
          "internalType": "uint256",
          "name": "amount",
          "type": "uint256"
        },
        {
          "internalType": "bytes",
          "name": "data",
          "type": "bytes"
        }
      ],
      "name": "safeTransferFrom",
      "outputs": [],
      "stateMutability": "nonpayable",
      "type": "function"
    },
    {
      "inputs": [
        {
          "internalType": "address",
          "name": "operator",
          "type": "address"
        },
        {
          "internalType": "bool",
          "name": "approved",
          "type": "bool"
        }
      ],
      "name": "setApprovalForAll",
      "outputs": [],
      "stateMutability": "nonpayable",
      "type": "function"
    },
    {
      "inputs": [
        {
          "internalType": "bytes4",
          "name": "interfaceId",
          "type": "bytes4"
        }
      ],
      "name": "supportsInterface",
      "outputs": [
        {
          "internalType": "bool",
          "name": "",
          "type": "bool"
        }
      ],
      "stateMutability": "view",
      "type": "function"
    },
    {
      "inputs": [
        {
          "internalType": "address",
          "name": "newOwner",
          "type": "address"
        }
      ],
      "name": "transferOwnership",
      "outputs": [],
      "stateMutability": "nonpayable",
      "type": "function"
    },
    {
      "inputs": [
        {
          "internalType": "uint256",
          "name": "",
          "type": "uint256"
        }
      ],
      "name": "uri",
      "outputs": [
        {
          "internalType": "string",
          "name": "",
          "type": "string"
        }
      ],
      "stateMutability": "view",
      "type": "function"
    },
    {
      "inputs": [
        {
          "internalType": "address",
          "name": "account",
          "type": "address"
        },
        {
          "internalType": "uint256",
          "name": "id",
          "type": "uint256"
        },
        {
          "internalType": "uint256",
          "name": "amount",
          "type": "uint256"
        }
      ],
      "name": "mint",
      "outputs": [],
      "stateMutability": "nonpayable",
      "type": "function"
    },
    {
      "inputs": [
        {
          "internalType": "address",
          "name": "account",
          "type": "address"
        },
        {
          "internalType": "uint256",
          "name": "id",
          "type": "uint256"
        },
        {
          "internalType": "uint256",
          "name": "amount",
          "type": "uint256"
        }
      ],
      "name": "burn",
      "outputs": [],
      "stateMutability": "nonpayable",
      "type": "function"
    }
  ],
  "bytecode": "0x60806040523480156200001157600080fd5b506040516200413e3803806200413e8339818101604052810190620000379190620007f8565b806200004981620000bb60201b60201c565b506200006a6200005e620000d760201b60201c565b620000df60201b60201c565b6200008f336000600160405180602001604052806000815250620001a560201b60201c565b620000b4336001600260405180602001604052806000815250620001a560201b60201c565b5062000eea565b8060029080519060200190620000d392919062000693565b5050565b600033905090565b6000600360009054906101000a900473ffffffffffffffffffffffffffffffffffffffff16905081600360006101000a81548173ffffffffffffffffffffffffffffffffffffffff021916908373ffffffffffffffffffffffffffffffffffffffff1602179055508173ffffffffffffffffffffffffffffffffffffffff168173ffffffffffffffffffffffffffffffffffffffff167f8be0079c531659141344cd1fd0a4f28419497f9722a3daafe3b4186f6b6457e060405160405180910390a35050565b600073ffffffffffffffffffffffffffffffffffffffff168473ffffffffffffffffffffffffffffffffffffffff16141562000218576040517f08c379a00000000000000000000000000000000000000000000000000000000081526004016200020f9062000a22565b60405180910390fd5b60006200022a620000d760201b60201c565b905060006200023f856200038d60201b60201c565b9050600062000254856200038d60201b60201c565b90506200026d836000898585896200045660201b60201c565b8460008088815260200190815260200160002060008973ffffffffffffffffffffffffffffffffffffffff1673ffffffffffffffffffffffffffffffffffffffff1681526020019081526020016000206000828254620002ce919062000b08565b925050819055508673ffffffffffffffffffffffffffffffffffffffff16600073ffffffffffffffffffffffffffffffffffffffff168473ffffffffffffffffffffffffffffffffffffffff167fc3d58168c5ae7397731d063d5bbf3d657854427343f4c083240f7aacaa2d0f6289896040516200034e92919062000a44565b60405180910390a46200036d836000898585896200045e60201b60201c565b62000384836000898989896200046660201b60201c565b50505050505050565b60606000600167ffffffffffffffff811115620003d3577f4e487b7100000000000000000000000000000000000000000000000000000000600052604160045260246000fd5b604051908082528060200260200182016040528015620004025781602001602082028036833780820191505090505b509050828160008151811062000441577f4e487b7100000000000000000000000000000000000000000000000000000000600052603260045260246000fd5b60200260200101818152505080915050919050565b505050505050565b505050505050565b620004928473ffffffffffffffffffffffffffffffffffffffff166200067060201b62000b691760201c565b1562000668578373ffffffffffffffffffffffffffffffffffffffff1663f23a6e6187878686866040518663ffffffff1660e01b8152600401620004db95949392919062000956565b602060405180830381600087803b158015620004f657600080fd5b505af19250505080156200052a57506040513d601f19601f82011682018060405250810190620005279190620007cc565b60015b620005dc576200053962000cfe565b806308c379a014156200059d57506200055162000e2e565b806200055e57506200059f565b806040517f08c379a0000000000000000000000000000000000000000000000000000000008152600401620005949190620009ba565b60405180910390fd5b505b6040517f08c379a0000000000000000000000000000000000000000000000000000000008152600401620005d390620009de565b60405180910390fd5b63f23a6e6160e01b7bffffffffffffffffffffffffffffffffffffffffffffffffffffffff1916817bffffffffffffffffffffffffffffffffffffffffffffffffffffffff19161462000666576040517f08c379a00000000000000000000000000000000000000000000000000000000081526004016200065d9062000a00565b60405180910390fd5b505b505050505050565b6000808273ffffffffffffffffffffffffffffffffffffffff163b119050919050565b828054620006a19062000c05565b90600052602060002090601f016020900481019282620006c5576000855562000711565b82601f10620006e057805160ff191683800117855562000711565b8280016001018555821562000711579182015b8281111562000710578251825591602001919060010190620006f3565b5b50905062000720919062000724565b5090565b5b808211156200073f57600081600090555060010162000725565b5090565b60006200075a620007548462000a9a565b62000a71565b9050828152602081018484840111156200077357600080fd5b6200078084828562000bcf565b509392505050565b600081519050620007998162000ed0565b92915050565b600082601f830112620007b157600080fd5b8151620007c384826020860162000743565b91505092915050565b600060208284031215620007df57600080fd5b6000620007ef8482850162000788565b91505092915050565b6000602082840312156200080b57600080fd5b600082015167ffffffffffffffff8111156200082657600080fd5b62000834848285016200079f565b91505092915050565b620008488162000b65565b82525050565b60006200085b8262000ad0565b62000867818562000ae6565b93506200087981856020860162000bcf565b620008848162000d23565b840191505092915050565b60006200089c8262000adb565b620008a8818562000af7565b9350620008ba81856020860162000bcf565b620008c58162000d23565b840191505092915050565b6000620008df60348362000af7565b9150620008ec8262000d41565b604082019050919050565b60006200090660288362000af7565b9150620009138262000d90565b604082019050919050565b60006200092d60218362000af7565b91506200093a8262000ddf565b604082019050919050565b620009508162000bc5565b82525050565b600060a0820190506200096d60008301886200083d565b6200097c60208301876200083d565b6200098b604083018662000945565b6200099a606083018562000945565b8181036080830152620009ae81846200084e565b90509695505050505050565b60006020820190508181036000830152620009d681846200088f565b905092915050565b60006020820190508181036000830152620009f981620008d0565b9050919050565b6000602082019050818103600083015262000a1b81620008f7565b9050919050565b6000602082019050818103600083015262000a3d816200091e565b9050919050565b600060408201905062000a5b600083018562000945565b62000a6a602083018462000945565b9392505050565b600062000a7d62000a90565b905062000a8b828262000c3b565b919050565b6000604051905090565b600067ffffffffffffffff82111562000ab85762000ab762000ccf565b5b62000ac38262000d23565b9050602081019050919050565b600081519050919050565b600081519050919050565b600082825260208201905092915050565b600082825260208201905092915050565b600062000b158262000bc5565b915062000b228362000bc5565b9250827fffffffffffffffffffffffffffffffffffffffffffffffffffffffffffffffff0382111562000b5a5762000b5962000c71565b5b828201905092915050565b600062000b728262000ba5565b9050919050565b60007fffffffff0000000000000000000000000000000000000000000000000000000082169050919050565b600073ffffffffffffffffffffffffffffffffffffffff82169050919050565b6000819050919050565b60005b8381101562000bef57808201518184015260208101905062000bd2565b8381111562000bff576000848401525b50505050565b6000600282049050600182168062000c1e57607f821691505b6020821081141562000c355762000c3462000ca0565b5b50919050565b62000c468262000d23565b810181811067ffffffffffffffff8211171562000c685762000c6762000ccf565b5b80604052505050565b7f4e487b7100000000000000000000000000000000000000000000000000000000600052601160045260246000fd5b7f4e487b7100000000000000000000000000000000000000000000000000000000600052602260045260246000fd5b7f4e487b7100000000000000000000000000000000000000000000000000000000600052604160045260246000fd5b600060033d111562000d205760046000803e62000d1d60005162000d34565b90505b90565b6000601f19601f8301169050919050565b60008160e01c9050919050565b7f455243313135353a207472616e7366657220746f206e6f6e204552433131353560008201527f526563656976657220696d706c656d656e746572000000000000000000000000602082015250565b7f455243313135353a204552433131353552656365697665722072656a6563746560008201527f6420746f6b656e73000000000000000000000000000000000000000000000000602082015250565b7f455243313135353a206d696e7420746f20746865207a65726f2061646472657360008201527f7300000000000000000000000000000000000000000000000000000000000000602082015250565b600060443d101562000e405762000ecd565b62000e4a62000a90565b60043d036004823e80513d602482011167ffffffffffffffff8211171562000e7457505062000ecd565b808201805167ffffffffffffffff81111562000e94575050505062000ecd565b80602083010160043d03850181111562000eb357505050505062000ecd565b62000ec48260200185018662000c3b565b82955050505050505b90565b62000edb8162000b79565b811462000ee757600080fd5b50565b6132448062000efa6000396000f3fe608060405234801561001057600080fd5b50600436106100f45760003560e01c8063715018a611610097578063e985e9c511610066578063e985e9c514610271578063f242432a146102a1578063f2fde38b146102bd578063f5298aca146102d9576100f4565b8063715018a61461020f5780638da5cb5b14610219578063a22cb46514610237578063d016c55414610253576100f4565b8063156e29f6116100d3578063156e29f61461018957806320f708b9146101a55780632eb2c2d6146101c35780634e1273f4146101df576100f4565b8062fdd58e146100f957806301ffc9a7146101295780630e89341c14610159575b600080fd5b610113600480360381019061010e91906120c3565b6102f5565b60405161012091906128b9565b60405180910390f35b610143600480360381019061013e91906121ba565b6103be565b604051610150919061269c565b60405180910390f35b610173600480360381019061016e919061220c565b6104a0565b60405161018091906126b7565b60405180910390f35b6101a3600480360381019061019e91906120ff565b610534565b005b6101ad6105d0565b6040516101ba91906128b9565b60405180910390f35b6101dd60048036038101906101d89190611f39565b6105d5565b005b6101f960048036038101906101f4919061214e565b610676565b6040516102069190612643565b60405180910390f35b610217610827565b005b6102216108af565b60405161022e9190612566565b60405180910390f35b610251600480360381019061024c9190612087565b6108d9565b005b61025b6108ef565b60405161026891906128b9565b60405180910390f35b61028b60048036038101906102869190611efd565b6108f4565b604051610298919061269c565b60405180910390f35b6102bb60048036038101906102b69190611ff8565b610988565b005b6102d760048036038101906102d29190611ed4565b610a29565b005b6102f360048036038101906102ee91906120ff565b610b21565b005b60008073ffffffffffffffffffffffffffffffffffffffff168373ffffffffffffffffffffffffffffffffffffffff161415610366576040517f08c379a000000000000000000000000000000000000000000000000000000000815260040161035d90612719565b60405180910390fd5b60008083815260200190815260200160002060008473ffffffffffffffffffffffffffffffffffffffff1673ffffffffffffffffffffffffffffffffffffffff16815260200190815260200160002054905092915050565b60007fd9b67a26000000000000000000000000000000000000000000000000000000007bffffffffffffffffffffffffffffffffffffffffffffffffffffffff1916827bffffffffffffffffffffffffffffffffffffffffffffffffffffffff1916148061048957507f0e89341c000000000000000000000000000000000000000000000000000000007bffffffffffffffffffffffffffffffffffffffffffffffffffffffff1916827bffffffffffffffffffffffffffffffffffffffffffffffffffffffff1916145b80610499575061049882610b8c565b5b9050919050565b6060600280546104af90612b28565b80601f01602080910402602001604051908101604052809291908181526020018280546104db90612b28565b80156105285780601f106104fd57610100808354040283529160200191610528565b820191906000526020600020905b81548152906001019060200180831161050b57829003601f168201915b50505050509050919050565b61053c610bf6565b73ffffffffffffffffffffffffffffffffffffffff1661055a6108af565b73ffffffffffffffffffffffffffffffffffffffff16146105b0576040517f08c379a00000000000000000000000000000000000000000000000000000000081526004016105a790612819565b60405180910390fd5b6105cb83838360405180602001604052806000815250610bfe565b505050565b600181565b6105dd610bf6565b73ffffffffffffffffffffffffffffffffffffffff168573ffffffffffffffffffffffffffffffffffffffff16148061062357506106228561061d610bf6565b6108f4565b5b610662576040517f08c379a0000000000000000000000000000000000000000000000000000000008152600401610659906127b9565b60405180910390fd5b61066f8585858585610daf565b5050505050565b606081518351146106bc576040517f08c379a00000000000000000000000000000000000000000000000000000000081526004016106b390612859565b60405180910390fd5b6000835167ffffffffffffffff8111156106ff577f4e487b7100000000000000000000000000000000000000000000000000000000600052604160045260246000fd5b60405190808252806020026020018201604052801561072d5781602001602082028036833780820191505090505b50905060005b845181101561081c576107c6858281518110610778577f4e487b7100000000000000000000000000000000000000000000000000000000600052603260045260246000fd5b60200260200101518583815181106107b9577f4e487b7100000000000000000000000000000000000000000000000000000000600052603260045260246000fd5b60200260200101516102f5565b8282815181106107ff577f4e487b7100000000000000000000000000000000000000000000000000000000600052603260045260246000fd5b6020026020010181815250508061081590612b8b565b9050610733565b508091505092915050565b61082f610bf6565b73ffffffffffffffffffffffffffffffffffffffff1661084d6108af565b73ffffffffffffffffffffffffffffffffffffffff16146108a3576040517f08c379a000000000000000000000000000000000000000000000000000000000815260040161089a90612819565b60405180910390fd5b6108ad600061111d565b565b6000600360009054906101000a900473ffffffffffffffffffffffffffffffffffffffff16905090565b6108eb6108e4610bf6565b83836111e3565b5050565b600081565b6000600160008473ffffffffffffffffffffffffffffffffffffffff1673ffffffffffffffffffffffffffffffffffffffff16815260200190815260200160002060008373ffffffffffffffffffffffffffffffffffffffff1673ffffffffffffffffffffffffffffffffffffffff16815260200190815260200160002060009054906101000a900460ff16905092915050565b610990610bf6565b73ffffffffffffffffffffffffffffffffffffffff168573ffffffffffffffffffffffffffffffffffffffff1614806109d657506109d5856109d0610bf6565b6108f4565b5b610a15576040517f08c379a0000000000000000000000000000000000000000000000000000000008152600401610a0c90612779565b60405180910390fd5b610a228585858585611350565b5050505050565b610a31610bf6565b73ffffffffffffffffffffffffffffffffffffffff16610a4f6108af565b73ffffffffffffffffffffffffffffffffffffffff1614610aa5576040517f08c379a0000000000000000000000000000000000000000000000000000000008152600401610a9c90612819565b60405180910390fd5b600073ffffffffffffffffffffffffffffffffffffffff168173ffffffffffffffffffffffffffffffffffffffff161415610b15576040517f08c379a0000000000000000000000000000000000000000000000000000000008152600401610b0c90612739565b60405180910390fd5b610b1e8161111d565b50565b8273ffffffffffffffffffffffffffffffffffffffff163373ffffffffffffffffffffffffffffffffffffffff1614610b5957600080fd5b610b648383836115ec565b505050565b6000808273ffffffffffffffffffffffffffffffffffffffff163b119050919050565b60007f01ffc9a7000000000000000000000000000000000000000000000000000000007bffffffffffffffffffffffffffffffffffffffffffffffffffffffff1916827bffffffffffffffffffffffffffffffffffffffffffffffffffffffff1916149050919050565b600033905090565b600073ffffffffffffffffffffffffffffffffffffffff168473ffffffffffffffffffffffffffffffffffffffff161415610c6e576040517f08c379a0000000000000000000000000000000000000000000000000000000008152600401610c6590612899565b60405180910390fd5b6000610c78610bf6565b90506000610c8585611833565b90506000610c9285611833565b9050610ca3836000898585896118f9565b8460008088815260200190815260200160002060008973ffffffffffffffffffffffffffffffffffffffff1673ffffffffffffffffffffffffffffffffffffffff1681526020019081526020016000206000828254610d029190612a1c565b925050819055508673ffffffffffffffffffffffffffffffffffffffff16600073ffffffffffffffffffffffffffffffffffffffff168473ffffffffffffffffffffffffffffffffffffffff167fc3d58168c5ae7397731d063d5bbf3d657854427343f4c083240f7aacaa2d0f628989604051610d809291906128d4565b60405180910390a4610d9783600089858589611901565b610da683600089898989611909565b50505050505050565b8151835114610df3576040517f08c379a0000000000000000000000000000000000000000000000000000000008152600401610dea90612879565b60405180910390fd5b600073ffffffffffffffffffffffffffffffffffffffff168473ffffffffffffffffffffffffffffffffffffffff161415610e63576040517f08c379a0000000000000000000000000000000000000000000000000000000008152600401610e5a90612799565b60405180910390fd5b6000610e6d610bf6565b9050610e7d8187878787876118f9565b60005b845181101561107a576000858281518110610ec4577f4e487b7100000000000000000000000000000000000000000000000000000000600052603260045260246000fd5b602002602001015190506000858381518110610f09577f4e487b7100000000000000000000000000000000000000000000000000000000600052603260045260246000fd5b60200260200101519050600080600084815260200190815260200160002060008b73ffffffffffffffffffffffffffffffffffffffff1673ffffffffffffffffffffffffffffffffffffffff16815260200190815260200160002054905081811015610faa576040517f08c379a0000000000000000000000000000000000000000000000000000000008152600401610fa1906127f9565b60405180910390fd5b81810360008085815260200190815260200160002060008c73ffffffffffffffffffffffffffffffffffffffff1673ffffffffffffffffffffffffffffffffffffffff168152602001908152602001600020819055508160008085815260200190815260200160002060008b73ffffffffffffffffffffffffffffffffffffffff1673ffffffffffffffffffffffffffffffffffffffff168152602001908152602001600020600082825461105f9190612a1c565b925050819055505050508061107390612b8b565b9050610e80565b508473ffffffffffffffffffffffffffffffffffffffff168673ffffffffffffffffffffffffffffffffffffffff168273ffffffffffffffffffffffffffffffffffffffff167f4a39dc06d4c0dbc64b70af90fd698a233a518aa5d07e595d983b8c0526c8f7fb87876040516110f1929190612665565b60405180910390a4611107818787878787611901565b611115818787878787611af0565b505050505050565b6000600360009054906101000a900473ffffffffffffffffffffffffffffffffffffffff16905081600360006101000a81548173ffffffffffffffffffffffffffffffffffffffff021916908373ffffffffffffffffffffffffffffffffffffffff1602179055508173ffffffffffffffffffffffffffffffffffffffff168173ffffffffffffffffffffffffffffffffffffffff167f8be0079c531659141344cd1fd0a4f28419497f9722a3daafe3b4186f6b6457e060405160405180910390a35050565b8173ffffffffffffffffffffffffffffffffffffffff168373ffffffffffffffffffffffffffffffffffffffff161415611252576040517f08c379a000000000000000000000000000000000000000000000000000000000815260040161124990612839565b60405180910390fd5b80600160008573ffffffffffffffffffffffffffffffffffffffff1673ffffffffffffffffffffffffffffffffffffffff16815260200190815260200160002060008473ffffffffffffffffffffffffffffffffffffffff1673ffffffffffffffffffffffffffffffffffffffff16815260200190815260200160002060006101000a81548160ff0219169083151502179055508173ffffffffffffffffffffffffffffffffffffffff168373ffffffffffffffffffffffffffffffffffffffff167f17307eab39ab6107e8899845ad3d59bd9653f200f220920489ca2b5937696c3183604051611343919061269c565b60405180910390a3505050565b600073ffffffffffffffffffffffffffffffffffffffff168473ffffffffffffffffffffffffffffffffffffffff1614156113c0576040517f08c379a00000000000000000000000000000000000000000000000000000000081526004016113b790612799565b60405180910390fd5b60006113ca610bf6565b905060006113d785611833565b905060006113e485611833565b90506113f48389898585896118f9565b600080600088815260200190815260200160002060008a73ffffffffffffffffffffffffffffffffffffffff1673ffffffffffffffffffffffffffffffffffffffff1681526020019081526020016000205490508581101561148b576040517f08c379a0000000000000000000000000000000000000000000000000000000008152600401611482906127f9565b60405180910390fd5b85810360008089815260200190815260200160002060008b73ffffffffffffffffffffffffffffffffffffffff1673ffffffffffffffffffffffffffffffffffffffff168152602001908152602001600020819055508560008089815260200190815260200160002060008a73ffffffffffffffffffffffffffffffffffffffff1673ffffffffffffffffffffffffffffffffffffffff16815260200190815260200160002060008282546115409190612a1c565b925050819055508773ffffffffffffffffffffffffffffffffffffffff168973ffffffffffffffffffffffffffffffffffffffff168573ffffffffffffffffffffffffffffffffffffffff167fc3d58168c5ae7397731d063d5bbf3d657854427343f4c083240f7aacaa2d0f628a8a6040516115bd9291906128d4565b60405180910390a46115d3848a8a86868a611901565b6115e1848a8a8a8a8a611909565b505050505050505050565b600073ffffffffffffffffffffffffffffffffffffffff168373ffffffffffffffffffffffffffffffffffffffff16141561165c576040517f08c379a0000000000000000000000000000000000000000000000000000000008152600401611653906127d9565b60405180910390fd5b6000611666610bf6565b9050600061167384611833565b9050600061168084611833565b90506116a0838760008585604051806020016040528060008152506118f9565b600080600087815260200190815260200160002060008873ffffffffffffffffffffffffffffffffffffffff1673ffffffffffffffffffffffffffffffffffffffff16815260200190815260200160002054905084811015611737576040517f08c379a000000000000000000000000000000000000000000000000000000000815260040161172e90612759565b60405180910390fd5b84810360008088815260200190815260200160002060008973ffffffffffffffffffffffffffffffffffffffff1673ffffffffffffffffffffffffffffffffffffffff16815260200190815260200160002081905550600073ffffffffffffffffffffffffffffffffffffffff168773ffffffffffffffffffffffffffffffffffffffff168573ffffffffffffffffffffffffffffffffffffffff167fc3d58168c5ae7397731d063d5bbf3d657854427343f4c083240f7aacaa2d0f6289896040516118049291906128d4565b60405180910390a461182a84886000868660405180602001604052806000815250611901565b50505050505050565b60606000600167ffffffffffffffff811115611878577f4e487b7100000000000000000000000000000000000000000000000000000000600052604160045260246000fd5b6040519080825280602002602001820160405280156118a65781602001602082028036833780820191505090505b50905082816000815181106118e4577f4e487b7100000000000000000000000000000000000000000000000000000000600052603260045260246000fd5b60200260200101818152505080915050919050565b505050505050565b505050505050565b6119288473ffffffffffffffffffffffffffffffffffffffff16610b69565b15611ae8578373ffffffffffffffffffffffffffffffffffffffff1663f23a6e6187878686866040518663ffffffff1660e01b815260040161196e9594939291906125e9565b602060405180830381600087803b15801561198857600080fd5b505af19250505080156119b957506040513d601f19601f820116820180604052508101906119b691906121e3565b60015b611a5f576119c5612c61565b806308c379a01415611a2257506119da61311c565b806119e55750611a24565b806040517f08c379a0000000000000000000000000000000000000000000000000000000008152600401611a1991906126b7565b60405180910390fd5b505b6040517f08c379a0000000000000000000000000000000000000000000000000000000008152600401611a56906126d9565b60405180910390fd5b63f23a6e6160e01b7bffffffffffffffffffffffffffffffffffffffffffffffffffffffff1916817bffffffffffffffffffffffffffffffffffffffffffffffffffffffff191614611ae6576040517f08c379a0000000000000000000000000000000000000000000000000000000008152600401611add906126f9565b60405180910390fd5b505b505050505050565b611b0f8473ffffffffffffffffffffffffffffffffffffffff16610b69565b15611ccf578373ffffffffffffffffffffffffffffffffffffffff1663bc197c8187878686866040518663ffffffff1660e01b8152600401611b55959493929190612581565b602060405180830381600087803b158015611b6f57600080fd5b505af1925050508015611ba057506040513d601f19601f82011682018060405250810190611b9d91906121e3565b60015b611c4657611bac612c61565b806308c379a01415611c095750611bc161311c565b80611bcc5750611c0b565b806040517f08c379a0000000000000000000000000000000000000000000000000000000008152600401611c0091906126b7565b60405180910390fd5b505b6040517f08c379a0000000000000000000000000000000000000000000000000000000008152600401611c3d906126d9565b60405180910390fd5b63bc197c8160e01b7bffffffffffffffffffffffffffffffffffffffffffffffffffffffff1916817bffffffffffffffffffffffffffffffffffffffffffffffffffffffff191614611ccd576040517f08c379a0000000000000000000000000000000000000000000000000000000008152600401611cc4906126f9565b60405180910390fd5b505b505050505050565b6000611cea611ce584612922565b6128fd565b90508083825260208201905082856020860282011115611d0957600080fd5b60005b85811015611d395781611d1f8882611ded565b845260208401935060208301925050600181019050611d0c565b5050509392505050565b6000611d56611d518461294e565b6128fd565b90508083825260208201905082856020860282011115611d7557600080fd5b60005b85811015611da55781611d8b8882611ebf565b845260208401935060208301925050600181019050611d78565b5050509392505050565b6000611dc2611dbd8461297a565b6128fd565b905082815260208101848484011115611dda57600080fd5b611de5848285612ae6565b509392505050565b600081359050611dfc816131b2565b92915050565b600082601f830112611e1357600080fd5b8135611e23848260208601611cd7565b91505092915050565b600082601f830112611e3d57600080fd5b8135611e4d848260208601611d43565b91505092915050565b600081359050611e65816131c9565b92915050565b600081359050611e7a816131e0565b92915050565b600081519050611e8f816131e0565b92915050565b600082601f830112611ea657600080fd5b8135611eb6848260208601611daf565b91505092915050565b600081359050611ece816131f7565b92915050565b600060208284031215611ee657600080fd5b6000611ef484828501611ded565b91505092915050565b60008060408385031215611f1057600080fd5b6000611f1e85828601611ded565b9250506020611f2f85828601611ded565b9150509250929050565b600080600080600060a08688031215611f5157600080fd5b6000611f5f88828901611ded565b9550506020611f7088828901611ded565b945050604086013567ffffffffffffffff811115611f8d57600080fd5b611f9988828901611e2c565b935050606086013567ffffffffffffffff811115611fb657600080fd5b611fc288828901611e2c565b925050608086013567ffffffffffffffff811115611fdf57600080fd5b611feb88828901611e95565b9150509295509295909350565b600080600080600060a0868803121561201057600080fd5b600061201e88828901611ded565b955050602061202f88828901611ded565b945050604061204088828901611ebf565b935050606061205188828901611ebf565b925050608086013567ffffffffffffffff81111561206e57600080fd5b61207a88828901611e95565b9150509295509295909350565b6000806040838503121561209a57600080fd5b60006120a885828601611ded565b92505060206120b985828601611e56565b9150509250929050565b600080604083850312156120d657600080fd5b60006120e485828601611ded565b92505060206120f585828601611ebf565b9150509250929050565b60008060006060848603121561211457600080fd5b600061212286828701611ded565b935050602061213386828701611ebf565b925050604061214486828701611ebf565b9150509250925092565b6000806040838503121561216157600080fd5b600083013567ffffffffffffffff81111561217b57600080fd5b61218785828601611e02565b925050602083013567ffffffffffffffff8111156121a457600080fd5b6121b085828601611e2c565b9150509250929050565b6000602082840312156121cc57600080fd5b60006121da84828501611e6b565b91505092915050565b6000602082840312156121f557600080fd5b600061220384828501611e80565b91505092915050565b60006020828403121561221e57600080fd5b600061222c84828501611ebf565b91505092915050565b60006122418383612548565b60208301905092915050565b61225681612a72565b82525050565b6000612267826129bb565b61227181856129e9565b935061227c836129ab565b8060005b838110156122ad5781516122948882612235565b975061229f836129dc565b925050600181019050612280565b5085935050505092915050565b6122c381612a84565b82525050565b60006122d4826129c6565b6122de81856129fa565b93506122ee818560208601612af5565b6122f781612c83565b840191505092915050565b600061230d826129d1565b6123178185612a0b565b9350612327818560208601612af5565b61233081612c83565b840191505092915050565b6000612348603483612a0b565b915061235382612ca1565b604082019050919050565b600061236b602883612a0b565b915061237682612cf0565b604082019050919050565b600061238e602b83612a0b565b915061239982612d3f565b604082019050919050565b60006123b1602683612a0b565b91506123bc82612d8e565b604082019050919050565b60006123d4602483612a0b565b91506123df82612ddd565b604082019050919050565b60006123f7602983612a0b565b915061240282612e2c565b604082019050919050565b600061241a602583612a0b565b915061242582612e7b565b604082019050919050565b600061243d603283612a0b565b915061244882612eca565b604082019050919050565b6000612460602383612a0b565b915061246b82612f19565b604082019050919050565b6000612483602a83612a0b565b915061248e82612f68565b604082019050919050565b60006124a6602083612a0b565b91506124b182612fb7565b602082019050919050565b60006124c9602983612a0b565b91506124d482612fe0565b604082019050919050565b60006124ec602983612a0b565b91506124f78261302f565b604082019050919050565b600061250f602883612a0b565b915061251a8261307e565b604082019050919050565b6000612532602183612a0b565b915061253d826130cd565b604082019050919050565b61255181612adc565b82525050565b61256081612adc565b82525050565b600060208201905061257b600083018461224d565b92915050565b600060a082019050612596600083018861224d565b6125a3602083018761224d565b81810360408301526125b5818661225c565b905081810360608301526125c9818561225c565b905081810360808301526125dd81846122c9565b90509695505050505050565b600060a0820190506125fe600083018861224d565b61260b602083018761224d565b6126186040830186612557565b6126256060830185612557565b818103608083015261263781846122c9565b90509695505050505050565b6000602082019050818103600083015261265d818461225c565b905092915050565b6000604082019050818103600083015261267f818561225c565b90508181036020830152612693818461225c565b90509392505050565b60006020820190506126b160008301846122ba565b92915050565b600060208201905081810360008301526126d18184612302565b905092915050565b600060208201905081810360008301526126f28161233b565b9050919050565b600060208201905081810360008301526127128161235e565b9050919050565b6000602082019050818103600083015261273281612381565b9050919050565b60006020820190508181036000830152612752816123a4565b9050919050565b60006020820190508181036000830152612772816123c7565b9050919050565b60006020820190508181036000830152612792816123ea565b9050919050565b600060208201905081810360008301526127b28161240d565b9050919050565b600060208201905081810360008301526127d281612430565b9050919050565b600060208201905081810360008301526127f281612453565b9050919050565b6000602082019050818103600083015261281281612476565b9050919050565b6000602082019050818103600083015261283281612499565b9050919050565b60006020820190508181036000830152612852816124bc565b9050919050565b60006020820190508181036000830152612872816124df565b9050919050565b6000602082019050818103600083015261289281612502565b9050919050565b600060208201905081810360008301526128b281612525565b9050919050565b60006020820190506128ce6000830184612557565b92915050565b60006040820190506128e96000830185612557565b6128f66020830184612557565b9392505050565b6000612907612918565b90506129138282612b5a565b919050565b6000604051905090565b600067ffffffffffffffff82111561293d5761293c612c32565b5b602082029050602081019050919050565b600067ffffffffffffffff82111561296957612968612c32565b5b602082029050602081019050919050565b600067ffffffffffffffff82111561299557612994612c32565b5b61299e82612c83565b9050602081019050919050565b6000819050602082019050919050565b600081519050919050565b600081519050919050565b600081519050919050565b6000602082019050919050565b600082825260208201905092915050565b600082825260208201905092915050565b600082825260208201905092915050565b6000612a2782612adc565b9150612a3283612adc565b9250827fffffffffffffffffffffffffffffffffffffffffffffffffffffffffffffffff03821115612a6757612a66612bd4565b5b828201905092915050565b6000612a7d82612abc565b9050919050565b60008115159050919050565b60007fffffffff0000000000000000000000000000000000000000000000000000000082169050919050565b600073ffffffffffffffffffffffffffffffffffffffff82169050919050565b6000819050919050565b82818337600083830152505050565b60005b83811015612b13578082015181840152602081019050612af8565b83811115612b22576000848401525b50505050565b60006002820490506001821680612b4057607f821691505b60208210811415612b5457612b53612c03565b5b50919050565b612b6382612c83565b810181811067ffffffffffffffff82111715612b8257612b81612c32565b5b80604052505050565b6000612b9682612adc565b91507fffffffffffffffffffffffffffffffffffffffffffffffffffffffffffffffff821415612bc957612bc8612bd4565b5b600182019050919050565b7f4e487b7100000000000000000000000000000000000000000000000000000000600052601160045260246000fd5b7f4e487b7100000000000000000000000000000000000000000000000000000000600052602260045260246000fd5b7f4e487b7100000000000000000000000000000000000000000000000000000000600052604160045260246000fd5b600060033d1115612c805760046000803e612c7d600051612c94565b90505b90565b6000601f19601f8301169050919050565b60008160e01c9050919050565b7f455243313135353a207472616e7366657220746f206e6f6e204552433131353560008201527f526563656976657220696d706c656d656e746572000000000000000000000000602082015250565b7f455243313135353a204552433131353552656365697665722072656a6563746560008201527f6420746f6b656e73000000000000000000000000000000000000000000000000602082015250565b7f455243313135353a2062616c616e636520717565727920666f7220746865207a60008201527f65726f2061646472657373000000000000000000000000000000000000000000602082015250565b7f4f776e61626c653a206e6577206f776e657220697320746865207a65726f206160008201527f6464726573730000000000000000000000000000000000000000000000000000602082015250565b7f455243313135353a206275726e20616d6f756e7420657863656564732062616c60008201527f616e636500000000000000000000000000000000000000000000000000000000602082015250565b7f455243313135353a2063616c6c6572206973206e6f74206f776e6572206e6f7260008201527f20617070726f7665640000000000000000000000000000000000000000000000602082015250565b7f455243313135353a207472616e7366657220746f20746865207a65726f20616460008201527f6472657373000000000000000000000000000000000000000000000000000000602082015250565b7f455243313135353a207472616e736665722063616c6c6572206973206e6f742060008201527f6f776e6572206e6f7220617070726f7665640000000000000000000000000000602082015250565b7f455243313135353a206275726e2066726f6d20746865207a65726f206164647260008201527f6573730000000000000000000000000000000000000000000000000000000000602082015250565b7f455243313135353a20696e73756666696369656e742062616c616e636520666f60008201527f72207472616e7366657200000000000000000000000000000000000000000000602082015250565b7f4f776e61626c653a2063616c6c6572206973206e6f7420746865206f776e6572600082015250565b7f455243313135353a2073657474696e6720617070726f76616c2073746174757360008201527f20666f722073656c660000000000000000000000000000000000000000000000602082015250565b7f455243313135353a206163636f756e747320616e6420696473206c656e67746860008201527f206d69736d617463680000000000000000000000000000000000000000000000602082015250565b7f455243313135353a2069647320616e6420616d6f756e7473206c656e6774682060008201527f6d69736d61746368000000000000000000000000000000000000000000000000602082015250565b7f455243313135353a206d696e7420746f20746865207a65726f2061646472657360008201527f7300000000000000000000000000000000000000000000000000000000000000602082015250565b600060443d101561312c576131af565b613134612918565b60043d036004823e80513d602482011167ffffffffffffffff8211171561315c5750506131af565b808201805167ffffffffffffffff81111561317a57505050506131af565b80602083010160043d0385018111156131975750505050506131af565b6131a682602001850186612b5a565b82955050505050505b90565b6131bb81612a72565b81146131c657600080fd5b50565b6131d281612a84565b81146131dd57600080fd5b50565b6131e981612a90565b81146131f457600080fd5b50565b61320081612adc565b811461320b57600080fd5b5056fea26469706673582212202ae4c03eae85cd02ee42d3ed978f44ecb0f4fc6a5b97bddbf36939fce369e44f64736f6c63430008010033",
  "immutableReferences": {},
  "source": "// SPDX-License-Identifier: MIT\npragma solidity ^0.8.1;\n// Import ERC1155 token contract from Openzeppelin\n//   /$$$$$$  /$$     /$$ /$$   /$$  /$$$$$$  /$$   /$$\n//  /$$__  $$|  $$   /$$/| $$  | $$ /$$__  $$| $$  | $$\n// | $$  \\ $$ \\  $$ /$$/ | $$  | $$| $$  \\__/| $$  | $$\n// | $$$$$$$$  \\  $$$$/  | $$  | $$|  $$$$$$ | $$$$$$$$\n// | $$__  $$   \\  $$/   | $$  | $$ \\____  $$| $$__  $$\n// | $$  | $$    | $$    | $$  | $$ /$$  \\ $$| $$  | $$\n// | $$  | $$    | $$    |  $$$$$$/|  $$$$$$/| $$  | $$\n// |__/  |__/    |__/     \\______/  \\______/ |__/  |__/\n                                                \n//  /$$$$$$$$ /$$$$$$$   /$$$$$$          /$$     /$$   /$$$$$$$  /$$$$$$$ \n// | $$_____/| $$__  $$ /$$__  $$       /$$$$   /$$$$  | $$____/ | $$____/ \n// | $$      | $$  \\ $$| $$  \\__/      |_  $$  |_  $$  | $$      | $$      \n// | $$$$$   | $$$$$$$/| $$              | $$    | $$  | $$$$$$$ | $$$$$$$ \n// | $$__/   | $$__  $$| $$              | $$    | $$  |_____  $$|_____  $$\n// | $$      | $$  \\ $$| $$    $$        | $$    | $$   /$$  \\ $$ /$$  \\ $$\n// | $$$$$$$$| $$  | $$|  $$$$$$/       /$$$$$$ /$$$$$$|  $$$$$$/|  $$$$$$/\n// |________/|__/  |__/ \\______/       |______/|______/ \\______/  \\______/ \n                                                                        \n                                                                        \nimport \"@openzeppelin/contracts/token/ERC1155/ERC1155.sol\";\nimport \"@openzeppelin/contracts/access/Ownable.sol\";\ncontract NFTContract is ERC1155, Ownable {\n    \n    uint256 public constant ARTWORK = 0;\n    uint256 public constant PHOTO = 1;\n    \n    constructor(string memory uri) ERC1155(uri){\n        \n        _mint(msg.sender, ARTWORK, 1 , \"\");\n        _mint(msg.sender, PHOTO, 2 , \"\");\n   \n   }\n    function mint(address account,uint256 id,uint256 amount)virtual external onlyOwner{\n        _mint(account , id , amount,\"\");\n   }\n    function burn(address account,uint256 id,uint256 amount)virtual external {\n        require(msg.sender == account);\n        _burn(account,id,amount);\n    }\n}\n",
  "sourcePath": "/home/ayush/Crosschain/contracts/Base-Erc1155.sol",
  "compiler": {
    "name": "solc",
    "version": "0.8.1+commit.df193b15.Emscripten.clang"
  },
  "schemaVersion": "3.4.7",
  "updatedAt": "2022-06-16T17:30:42.503Z",
  "devdoc": {
    "kind": "dev",
    "methods": {
      "balanceOf(address,uint256)": {
        "details": "See {IERC1155-balanceOf}. Requirements: - `account` cannot be the zero address."
      },
      "balanceOfBatch(address[],uint256[])": {
        "details": "See {IERC1155-balanceOfBatch}. Requirements: - `accounts` and `ids` must have the same length."
      },
      "isApprovedForAll(address,address)": {
        "details": "See {IERC1155-isApprovedForAll}."
      },
      "owner()": {
        "details": "Returns the address of the current owner."
      },
      "renounceOwnership()": {
        "details": "Leaves the contract without owner. It will not be possible to call `onlyOwner` functions anymore. Can only be called by the current owner. NOTE: Renouncing ownership will leave the contract without an owner, thereby removing any functionality that is only available to the owner."
      },
      "safeBatchTransferFrom(address,address,uint256[],uint256[],bytes)": {
        "details": "See {IERC1155-safeBatchTransferFrom}."
      },
      "safeTransferFrom(address,address,uint256,uint256,bytes)": {
        "details": "See {IERC1155-safeTransferFrom}."
      },
      "setApprovalForAll(address,bool)": {
        "details": "See {IERC1155-setApprovalForAll}."
      },
      "supportsInterface(bytes4)": {
        "details": "See {IERC165-supportsInterface}."
      },
      "transferOwnership(address)": {
        "details": "Transfers ownership of the contract to a new account (`newOwner`). Can only be called by the current owner."
      },
      "uri(uint256)": {
        "details": "See {IERC1155MetadataURI-uri}. This implementation returns the same URI for *all* token types. It relies on the token type ID substitution mechanism https://eips.ethereum.org/EIPS/eip-1155#metadata[defined in the EIP]. Clients calling this function must replace the `\\{id\\}` substring with the actual token type ID."
      }
    },
    "version": 1
  },
  "userdoc": {
    "kind": "user",
    "methods": {},
    "version": 1
  }
}