{
  "contractName": "RinkebyNFTContract",
  "abi": [
    {
      "inputs": [],
      "stateMutability": "nonpayable",
      "type": "constructor"
    },
    {
      "anonymous": false,
      "inputs": [
        {
          "indexed": true,
          "internalType": "address",
          "name": "account",
          "type": "address"
        },
        {
          "indexed": true,
          "internalType": "address",
          "name": "operator",
          "type": "address"
        },
        {
          "indexed": false,
          "internalType": "bool",
          "name": "approved",
          "type": "bool"
        }
      ],
      "name": "ApprovalForAll",
      "type": "event"
    },
    {
      "anonymous": false,
      "inputs": [
        {
          "indexed": true,
          "internalType": "address",
          "name": "previousOwner",
          "type": "address"
        },
        {
          "indexed": true,
          "internalType": "address",
          "name": "newOwner",
          "type": "address"
        }
      ],
      "name": "OwnershipTransferred",
      "type": "event"
    },
    {
      "anonymous": false,
      "inputs": [
        {
          "indexed": true,
          "internalType": "address",
          "name": "operator",
          "type": "address"
        },
        {
          "indexed": true,
          "internalType": "address",
          "name": "from",
          "type": "address"
        },
        {
          "indexed": true,
          "internalType": "address",
          "name": "to",
          "type": "address"
        },
        {
          "indexed": false,
          "internalType": "uint256[]",
          "name": "ids",
          "type": "uint256[]"
        },
        {
          "indexed": false,
          "internalType": "uint256[]",
          "name": "values",
          "type": "uint256[]"
        }
      ],
      "name": "TransferBatch",
      "type": "event"
    },
    {
      "anonymous": false,
      "inputs": [
        {
          "indexed": true,
          "internalType": "address",
          "name": "operator",
          "type": "address"
        },
        {
          "indexed": true,
          "internalType": "address",
          "name": "from",
          "type": "address"
        },
        {
          "indexed": true,
          "internalType": "address",
          "name": "to",
          "type": "address"
        },
        {
          "indexed": false,
          "internalType": "uint256",
          "name": "id",
          "type": "uint256"
        },
        {
          "indexed": false,
          "internalType": "uint256",
          "name": "value",
          "type": "uint256"
        }
      ],
      "name": "TransferSingle",
      "type": "event"
    },
    {
      "anonymous": false,
      "inputs": [
        {
          "indexed": false,
          "internalType": "string",
          "name": "value",
          "type": "string"
        },
        {
          "indexed": true,
          "internalType": "uint256",
          "name": "id",
          "type": "uint256"
        }
      ],
      "name": "URI",
      "type": "event"
    },
    {
      "inputs": [],
      "name": "ARTWORK",
      "outputs": [
        {
          "internalType": "uint256",
          "name": "",
          "type": "uint256"
        }
      ],
      "stateMutability": "view",
      "type": "function"
    },
    {
      "inputs": [],
      "name": "PHOTO",
      "outputs": [
        {
          "internalType": "uint256",
          "name": "",
          "type": "uint256"
        }
      ],
      "stateMutability": "view",
      "type": "function"
    },
    {
      "inputs": [
        {
          "internalType": "address",
          "name": "account",
          "type": "address"
        },
        {
          "internalType": "uint256",
          "name": "id",
          "type": "uint256"
        }
      ],
      "name": "balanceOf",
      "outputs": [
        {
          "internalType": "uint256",
          "name": "",
          "type": "uint256"
        }
      ],
      "stateMutability": "view",
      "type": "function"
    },
    {
      "inputs": [
        {
          "internalType": "address[]",
          "name": "accounts",
          "type": "address[]"
        },
        {
          "internalType": "uint256[]",
          "name": "ids",
          "type": "uint256[]"
        }
      ],
      "name": "balanceOfBatch",
      "outputs": [
        {
          "internalType": "uint256[]",
          "name": "",
          "type": "uint256[]"
        }
      ],
      "stateMutability": "view",
      "type": "function"
    },
    {
      "inputs": [
        {
          "internalType": "address",
          "name": "account",
          "type": "address"
        },
        {
          "internalType": "address",
          "name": "operator",
          "type": "address"
        }
      ],
      "name": "isApprovedForAll",
      "outputs": [
        {
          "internalType": "bool",
          "name": "",
          "type": "bool"
        }
      ],
      "stateMutability": "view",
      "type": "function"
    },
    {
      "inputs": [],
      "name": "owner",
      "outputs": [
        {
          "internalType": "address",
          "name": "",
          "type": "address"
        }
      ],
      "stateMutability": "view",
      "type": "function"
    },
    {
      "inputs": [],
      "name": "renounceOwnership",
      "outputs": [],
      "stateMutability": "nonpayable",
      "type": "function"
    },
    {
      "inputs": [
        {
          "internalType": "address",
          "name": "from",
          "type": "address"
        },
        {
          "internalType": "address",
          "name": "to",
          "type": "address"
        },
        {
          "internalType": "uint256[]",
          "name": "ids",
          "type": "uint256[]"
        },
        {
          "internalType": "uint256[]",
          "name": "amounts",
          "type": "uint256[]"
        },
        {
          "internalType": "bytes",
          "name": "data",
          "type": "bytes"
        }
      ],
      "name": "safeBatchTransferFrom",
      "outputs": [],
      "stateMutability": "nonpayable",
      "type": "function"
    },
    {
      "inputs": [
        {
          "internalType": "address",
          "name": "from",
          "type": "address"
        },
        {
          "internalType": "address",
          "name": "to",
          "type": "address"
        },
        {
          "internalType": "uint256",
          "name": "id",
          "type": "uint256"
        },
        {
          "internalType": "uint256",
          "name": "amount",
          "type": "uint256"
        },
        {
          "internalType": "bytes",
          "name": "data",
          "type": "bytes"
        }
      ],
      "name": "safeTransferFrom",
      "outputs": [],
      "stateMutability": "nonpayable",
      "type": "function"
    },
    {
      "inputs": [
        {
          "internalType": "address",
          "name": "operator",
          "type": "address"
        },
        {
          "internalType": "bool",
          "name": "approved",
          "type": "bool"
        }
      ],
      "name": "setApprovalForAll",
      "outputs": [],
      "stateMutability": "nonpayable",
      "type": "function"
    },
    {
      "inputs": [
        {
          "internalType": "bytes4",
          "name": "interfaceId",
          "type": "bytes4"
        }
      ],
      "name": "supportsInterface",
      "outputs": [
        {
          "internalType": "bool",
          "name": "",
          "type": "bool"
        }
      ],
      "stateMutability": "view",
      "type": "function"
    },
    {
      "inputs": [
        {
          "internalType": "address",
          "name": "newOwner",
          "type": "address"
        }
      ],
      "name": "transferOwnership",
      "outputs": [],
      "stateMutability": "nonpayable",
      "type": "function"
    },
    {
      "inputs": [
        {
          "internalType": "uint256",
          "name": "",
          "type": "uint256"
        }
      ],
      "name": "uri",
      "outputs": [
        {
          "internalType": "string",
          "name": "",
          "type": "string"
        }
      ],
      "stateMutability": "view",
      "type": "function"
    },
    {
      "inputs": [
        {
          "internalType": "address",
          "name": "account",
          "type": "address"
        },
        {
          "internalType": "uint256",
          "name": "id",
          "type": "uint256"
        },
        {
          "internalType": "uint256",
          "name": "amount",
          "type": "uint256"
        }
      ],
      "name": "mint",
      "outputs": [],
      "stateMutability": "nonpayable",
      "type": "function"
    },
    {
      "inputs": [
        {
          "internalType": "address",
          "name": "account",
          "type": "address"
        },
        {
          "internalType": "uint256",
          "name": "id",
          "type": "uint256"
        },
        {
          "internalType": "uint256",
          "name": "amount",
          "type": "uint256"
        }
      ],
      "name": "burn",
      "outputs": [],
      "stateMutability": "nonpayable",
      "type": "function"
    }
  ],
  "bytecode": "0x60806040523480156200001157600080fd5b5060405180608001604052806050815260200162003fab60509139806200003e81620000b060201b60201c565b506200005f62000053620000cc60201b60201c565b620000d460201b60201c565b620000843360006001604051806020016040528060008152506200019a60201b60201c565b620000a93360016002604051806020016040528060008152506200019a60201b60201c565b5062000dd3565b8060029080519060200190620000c892919062000688565b5050565b600033905090565b6000600360009054906101000a900473ffffffffffffffffffffffffffffffffffffffff16905081600360006101000a81548173ffffffffffffffffffffffffffffffffffffffff021916908373ffffffffffffffffffffffffffffffffffffffff1602179055508173ffffffffffffffffffffffffffffffffffffffff168173ffffffffffffffffffffffffffffffffffffffff167f8be0079c531659141344cd1fd0a4f28419497f9722a3daafe3b4186f6b6457e060405160405180910390a35050565b600073ffffffffffffffffffffffffffffffffffffffff168473ffffffffffffffffffffffffffffffffffffffff1614156200020d576040517f08c379a0000000000000000000000000000000000000000000000000000000008152600401620002049062000960565b60405180910390fd5b60006200021f620000cc60201b60201c565b9050600062000234856200038260201b60201c565b9050600062000249856200038260201b60201c565b905062000262836000898585896200044b60201b60201c565b8460008088815260200190815260200160002060008973ffffffffffffffffffffffffffffffffffffffff1673ffffffffffffffffffffffffffffffffffffffff1681526020019081526020016000206000828254620002c39190620009f1565b925050819055508673ffffffffffffffffffffffffffffffffffffffff16600073ffffffffffffffffffffffffffffffffffffffff168473ffffffffffffffffffffffffffffffffffffffff167fc3d58168c5ae7397731d063d5bbf3d657854427343f4c083240f7aacaa2d0f6289896040516200034392919062000982565b60405180910390a462000362836000898585896200045360201b60201c565b62000379836000898989896200045b60201b60201c565b50505050505050565b60606000600167ffffffffffffffff811115620003c8577f4e487b7100000000000000000000000000000000000000000000000000000000600052604160045260246000fd5b604051908082528060200260200182016040528015620003f75781602001602082028036833780820191505090505b509050828160008151811062000436577f4e487b7100000000000000000000000000000000000000000000000000000000600052603260045260246000fd5b60200260200101818152505080915050919050565b505050505050565b505050505050565b620004878473ffffffffffffffffffffffffffffffffffffffff166200066560201b62000aed1760201c565b156200065d578373ffffffffffffffffffffffffffffffffffffffff1663f23a6e6187878686866040518663ffffffff1660e01b8152600401620004d095949392919062000894565b602060405180830381600087803b158015620004eb57600080fd5b505af19250505080156200051f57506040513d601f19601f820116820180604052508101906200051c91906200074f565b60015b620005d1576200052e62000be7565b806308c379a014156200059257506200054662000d17565b8062000553575062000594565b806040517f08c379a0000000000000000000000000000000000000000000000000000000008152600401620005899190620008f8565b60405180910390fd5b505b6040517f08c379a0000000000000000000000000000000000000000000000000000000008152600401620005c8906200091c565b60405180910390fd5b63f23a6e6160e01b7bffffffffffffffffffffffffffffffffffffffffffffffffffffffff1916817bffffffffffffffffffffffffffffffffffffffffffffffffffffffff1916146200065b576040517f08c379a000000000000000000000000000000000000000000000000000000000815260040162000652906200093e565b60405180910390fd5b505b505050505050565b6000808273ffffffffffffffffffffffffffffffffffffffff163b119050919050565b828054620006969062000aee565b90600052602060002090601f016020900481019282620006ba576000855562000706565b82601f10620006d557805160ff191683800117855562000706565b8280016001018555821562000706579182015b8281111562000705578251825591602001919060010190620006e8565b5b50905062000715919062000719565b5090565b5b80821115620007345760008160009055506001016200071a565b5090565b600081519050620007498162000db9565b92915050565b6000602082840312156200076257600080fd5b6000620007728482850162000738565b91505092915050565b620007868162000a4e565b82525050565b60006200079982620009b9565b620007a58185620009cf565b9350620007b781856020860162000ab8565b620007c28162000c0c565b840191505092915050565b6000620007da82620009c4565b620007e68185620009e0565b9350620007f881856020860162000ab8565b620008038162000c0c565b840191505092915050565b60006200081d603483620009e0565b91506200082a8262000c2a565b604082019050919050565b600062000844602883620009e0565b9150620008518262000c79565b604082019050919050565b60006200086b602183620009e0565b9150620008788262000cc8565b604082019050919050565b6200088e8162000aae565b82525050565b600060a082019050620008ab60008301886200077b565b620008ba60208301876200077b565b620008c9604083018662000883565b620008d8606083018562000883565b8181036080830152620008ec81846200078c565b90509695505050505050565b60006020820190508181036000830152620009148184620007cd565b905092915050565b6000602082019050818103600083015262000937816200080e565b9050919050565b60006020820190508181036000830152620009598162000835565b9050919050565b600060208201905081810360008301526200097b816200085c565b9050919050565b600060408201905062000999600083018562000883565b620009a8602083018462000883565b9392505050565b6000604051905090565b600081519050919050565b600081519050919050565b600082825260208201905092915050565b600082825260208201905092915050565b6000620009fe8262000aae565b915062000a0b8362000aae565b9250827fffffffffffffffffffffffffffffffffffffffffffffffffffffffffffffffff0382111562000a435762000a4262000b5a565b5b828201905092915050565b600062000a5b8262000a8e565b9050919050565b60007fffffffff0000000000000000000000000000000000000000000000000000000082169050919050565b600073ffffffffffffffffffffffffffffffffffffffff82169050919050565b6000819050919050565b60005b8381101562000ad857808201518184015260208101905062000abb565b8381111562000ae8576000848401525b50505050565b6000600282049050600182168062000b0757607f821691505b6020821081141562000b1e5762000b1d62000b89565b5b50919050565b62000b2f8262000c0c565b810181811067ffffffffffffffff8211171562000b515762000b5062000bb8565b5b80604052505050565b7f4e487b7100000000000000000000000000000000000000000000000000000000600052601160045260246000fd5b7f4e487b7100000000000000000000000000000000000000000000000000000000600052602260045260246000fd5b7f4e487b7100000000000000000000000000000000000000000000000000000000600052604160045260246000fd5b600060033d111562000c095760046000803e62000c0660005162000c1d565b90505b90565b6000601f19601f8301169050919050565b60008160e01c9050919050565b7f455243313135353a207472616e7366657220746f206e6f6e204552433131353560008201527f526563656976657220696d706c656d656e746572000000000000000000000000602082015250565b7f455243313135353a204552433131353552656365697665722072656a6563746560008201527f6420746f6b656e73000000000000000000000000000000000000000000000000602082015250565b7f455243313135353a206d696e7420746f20746865207a65726f2061646472657360008201527f7300000000000000000000000000000000000000000000000000000000000000602082015250565b600060443d101562000d295762000db6565b62000d33620009af565b60043d036004823e80513d602482011167ffffffffffffffff8211171562000d5d57505062000db6565b808201805167ffffffffffffffff81111562000d7d575050505062000db6565b80602083010160043d03850181111562000d9c57505050505062000db6565b62000dad8260200185018662000b24565b82955050505050505b90565b62000dc48162000a62565b811462000dd057600080fd5b50565b6131c88062000de36000396000f3fe608060405234801561001057600080fd5b50600436106100f45760003560e01c8063715018a611610097578063e985e9c511610066578063e985e9c514610271578063f242432a146102a1578063f2fde38b146102bd578063f5298aca146102d9576100f4565b8063715018a61461020f5780638da5cb5b14610219578063a22cb46514610237578063d016c55414610253576100f4565b8063156e29f6116100d3578063156e29f61461018957806320f708b9146101a55780632eb2c2d6146101c35780634e1273f4146101df576100f4565b8062fdd58e146100f957806301ffc9a7146101295780630e89341c14610159575b600080fd5b610113600480360381019061010e9190612047565b6102f5565b604051610120919061283d565b60405180910390f35b610143600480360381019061013e919061213e565b6103be565b6040516101509190612620565b60405180910390f35b610173600480360381019061016e9190612190565b6104a0565b604051610180919061263b565b60405180910390f35b6101a3600480360381019061019e9190612083565b610534565b005b6101ad610554565b6040516101ba919061283d565b60405180910390f35b6101dd60048036038101906101d89190611ebd565b610559565b005b6101f960048036038101906101f491906120d2565b6105fa565b60405161020691906125c7565b60405180910390f35b6102176107ab565b005b610221610833565b60405161022e91906124ea565b60405180910390f35b610251600480360381019061024c919061200b565b61085d565b005b61025b610873565b604051610268919061283d565b60405180910390f35b61028b60048036038101906102869190611e81565b610878565b6040516102989190612620565b60405180910390f35b6102bb60048036038101906102b69190611f7c565b61090c565b005b6102d760048036038101906102d29190611e58565b6109ad565b005b6102f360048036038101906102ee9190612083565b610aa5565b005b60008073ffffffffffffffffffffffffffffffffffffffff168373ffffffffffffffffffffffffffffffffffffffff161415610366576040517f08c379a000000000000000000000000000000000000000000000000000000000815260040161035d9061269d565b60405180910390fd5b60008083815260200190815260200160002060008473ffffffffffffffffffffffffffffffffffffffff1673ffffffffffffffffffffffffffffffffffffffff16815260200190815260200160002054905092915050565b60007fd9b67a26000000000000000000000000000000000000000000000000000000007bffffffffffffffffffffffffffffffffffffffffffffffffffffffff1916827bffffffffffffffffffffffffffffffffffffffffffffffffffffffff1916148061048957507f0e89341c000000000000000000000000000000000000000000000000000000007bffffffffffffffffffffffffffffffffffffffffffffffffffffffff1916827bffffffffffffffffffffffffffffffffffffffffffffffffffffffff1916145b80610499575061049882610b10565b5b9050919050565b6060600280546104af90612aac565b80601f01602080910402602001604051908101604052809291908181526020018280546104db90612aac565b80156105285780601f106104fd57610100808354040283529160200191610528565b820191906000526020600020905b81548152906001019060200180831161050b57829003601f168201915b50505050509050919050565b61054f83838360405180602001604052806000815250610b7a565b505050565b600181565b610561610d2b565b73ffffffffffffffffffffffffffffffffffffffff168573ffffffffffffffffffffffffffffffffffffffff1614806105a757506105a6856105a1610d2b565b610878565b5b6105e6576040517f08c379a00000000000000000000000000000000000000000000000000000000081526004016105dd9061273d565b60405180910390fd5b6105f38585858585610d33565b5050505050565b60608151835114610640576040517f08c379a0000000000000000000000000000000000000000000000000000000008152600401610637906127dd565b60405180910390fd5b6000835167ffffffffffffffff811115610683577f4e487b7100000000000000000000000000000000000000000000000000000000600052604160045260246000fd5b6040519080825280602002602001820160405280156106b15781602001602082028036833780820191505090505b50905060005b84518110156107a05761074a8582815181106106fc577f4e487b7100000000000000000000000000000000000000000000000000000000600052603260045260246000fd5b602002602001015185838151811061073d577f4e487b7100000000000000000000000000000000000000000000000000000000600052603260045260246000fd5b60200260200101516102f5565b828281518110610783577f4e487b7100000000000000000000000000000000000000000000000000000000600052603260045260246000fd5b6020026020010181815250508061079990612b0f565b90506106b7565b508091505092915050565b6107b3610d2b565b73ffffffffffffffffffffffffffffffffffffffff166107d1610833565b73ffffffffffffffffffffffffffffffffffffffff1614610827576040517f08c379a000000000000000000000000000000000000000000000000000000000815260040161081e9061279d565b60405180910390fd5b61083160006110a1565b565b6000600360009054906101000a900473ffffffffffffffffffffffffffffffffffffffff16905090565b61086f610868610d2b565b8383611167565b5050565b600081565b6000600160008473ffffffffffffffffffffffffffffffffffffffff1673ffffffffffffffffffffffffffffffffffffffff16815260200190815260200160002060008373ffffffffffffffffffffffffffffffffffffffff1673ffffffffffffffffffffffffffffffffffffffff16815260200190815260200160002060009054906101000a900460ff16905092915050565b610914610d2b565b73ffffffffffffffffffffffffffffffffffffffff168573ffffffffffffffffffffffffffffffffffffffff16148061095a575061095985610954610d2b565b610878565b5b610999576040517f08c379a0000000000000000000000000000000000000000000000000000000008152600401610990906126fd565b60405180910390fd5b6109a685858585856112d4565b5050505050565b6109b5610d2b565b73ffffffffffffffffffffffffffffffffffffffff166109d3610833565b73ffffffffffffffffffffffffffffffffffffffff1614610a29576040517f08c379a0000000000000000000000000000000000000000000000000000000008152600401610a209061279d565b60405180910390fd5b600073ffffffffffffffffffffffffffffffffffffffff168173ffffffffffffffffffffffffffffffffffffffff161415610a99576040517f08c379a0000000000000000000000000000000000000000000000000000000008152600401610a90906126bd565b60405180910390fd5b610aa2816110a1565b50565b8273ffffffffffffffffffffffffffffffffffffffff163373ffffffffffffffffffffffffffffffffffffffff1614610add57600080fd5b610ae8838383611570565b505050565b6000808273ffffffffffffffffffffffffffffffffffffffff163b119050919050565b60007f01ffc9a7000000000000000000000000000000000000000000000000000000007bffffffffffffffffffffffffffffffffffffffffffffffffffffffff1916827bffffffffffffffffffffffffffffffffffffffffffffffffffffffff1916149050919050565b600073ffffffffffffffffffffffffffffffffffffffff168473ffffffffffffffffffffffffffffffffffffffff161415610bea576040517f08c379a0000000000000000000000000000000000000000000000000000000008152600401610be19061281d565b60405180910390fd5b6000610bf4610d2b565b90506000610c01856117b7565b90506000610c0e856117b7565b9050610c1f8360008985858961187d565b8460008088815260200190815260200160002060008973ffffffffffffffffffffffffffffffffffffffff1673ffffffffffffffffffffffffffffffffffffffff1681526020019081526020016000206000828254610c7e91906129a0565b925050819055508673ffffffffffffffffffffffffffffffffffffffff16600073ffffffffffffffffffffffffffffffffffffffff168473ffffffffffffffffffffffffffffffffffffffff167fc3d58168c5ae7397731d063d5bbf3d657854427343f4c083240f7aacaa2d0f628989604051610cfc929190612858565b60405180910390a4610d1383600089858589611885565b610d228360008989898961188d565b50505050505050565b600033905090565b8151835114610d77576040517f08c379a0000000000000000000000000000000000000000000000000000000008152600401610d6e906127fd565b60405180910390fd5b600073ffffffffffffffffffffffffffffffffffffffff168473ffffffffffffffffffffffffffffffffffffffff161415610de7576040517f08c379a0000000000000000000000000000000000000000000000000000000008152600401610dde9061271d565b60405180910390fd5b6000610df1610d2b565b9050610e0181878787878761187d565b60005b8451811015610ffe576000858281518110610e48577f4e487b7100000000000000000000000000000000000000000000000000000000600052603260045260246000fd5b602002602001015190506000858381518110610e8d577f4e487b7100000000000000000000000000000000000000000000000000000000600052603260045260246000fd5b60200260200101519050600080600084815260200190815260200160002060008b73ffffffffffffffffffffffffffffffffffffffff1673ffffffffffffffffffffffffffffffffffffffff16815260200190815260200160002054905081811015610f2e576040517f08c379a0000000000000000000000000000000000000000000000000000000008152600401610f259061277d565b60405180910390fd5b81810360008085815260200190815260200160002060008c73ffffffffffffffffffffffffffffffffffffffff1673ffffffffffffffffffffffffffffffffffffffff168152602001908152602001600020819055508160008085815260200190815260200160002060008b73ffffffffffffffffffffffffffffffffffffffff1673ffffffffffffffffffffffffffffffffffffffff1681526020019081526020016000206000828254610fe391906129a0565b9250508190555050505080610ff790612b0f565b9050610e04565b508473ffffffffffffffffffffffffffffffffffffffff168673ffffffffffffffffffffffffffffffffffffffff168273ffffffffffffffffffffffffffffffffffffffff167f4a39dc06d4c0dbc64b70af90fd698a233a518aa5d07e595d983b8c0526c8f7fb87876040516110759291906125e9565b60405180910390a461108b818787878787611885565b611099818787878787611a74565b505050505050565b6000600360009054906101000a900473ffffffffffffffffffffffffffffffffffffffff16905081600360006101000a81548173ffffffffffffffffffffffffffffffffffffffff021916908373ffffffffffffffffffffffffffffffffffffffff1602179055508173ffffffffffffffffffffffffffffffffffffffff168173ffffffffffffffffffffffffffffffffffffffff167f8be0079c531659141344cd1fd0a4f28419497f9722a3daafe3b4186f6b6457e060405160405180910390a35050565b8173ffffffffffffffffffffffffffffffffffffffff168373ffffffffffffffffffffffffffffffffffffffff1614156111d6576040517f08c379a00000000000000000000000000000000000000000000000000000000081526004016111cd906127bd565b60405180910390fd5b80600160008573ffffffffffffffffffffffffffffffffffffffff1673ffffffffffffffffffffffffffffffffffffffff16815260200190815260200160002060008473ffffffffffffffffffffffffffffffffffffffff1673ffffffffffffffffffffffffffffffffffffffff16815260200190815260200160002060006101000a81548160ff0219169083151502179055508173ffffffffffffffffffffffffffffffffffffffff168373ffffffffffffffffffffffffffffffffffffffff167f17307eab39ab6107e8899845ad3d59bd9653f200f220920489ca2b5937696c31836040516112c79190612620565b60405180910390a3505050565b600073ffffffffffffffffffffffffffffffffffffffff168473ffffffffffffffffffffffffffffffffffffffff161415611344576040517f08c379a000000000000000000000000000000000000000000000000000000000815260040161133b9061271d565b60405180910390fd5b600061134e610d2b565b9050600061135b856117b7565b90506000611368856117b7565b905061137883898985858961187d565b600080600088815260200190815260200160002060008a73ffffffffffffffffffffffffffffffffffffffff1673ffffffffffffffffffffffffffffffffffffffff1681526020019081526020016000205490508581101561140f576040517f08c379a00000000000000000000000000000000000000000000000000000000081526004016114069061277d565b60405180910390fd5b85810360008089815260200190815260200160002060008b73ffffffffffffffffffffffffffffffffffffffff1673ffffffffffffffffffffffffffffffffffffffff168152602001908152602001600020819055508560008089815260200190815260200160002060008a73ffffffffffffffffffffffffffffffffffffffff1673ffffffffffffffffffffffffffffffffffffffff16815260200190815260200160002060008282546114c491906129a0565b925050819055508773ffffffffffffffffffffffffffffffffffffffff168973ffffffffffffffffffffffffffffffffffffffff168573ffffffffffffffffffffffffffffffffffffffff167fc3d58168c5ae7397731d063d5bbf3d657854427343f4c083240f7aacaa2d0f628a8a604051611541929190612858565b60405180910390a4611557848a8a86868a611885565b611565848a8a8a8a8a61188d565b505050505050505050565b600073ffffffffffffffffffffffffffffffffffffffff168373ffffffffffffffffffffffffffffffffffffffff1614156115e0576040517f08c379a00000000000000000000000000000000000000000000000000000000081526004016115d79061275d565b60405180910390fd5b60006115ea610d2b565b905060006115f7846117b7565b90506000611604846117b7565b90506116248387600085856040518060200160405280600081525061187d565b600080600087815260200190815260200160002060008873ffffffffffffffffffffffffffffffffffffffff1673ffffffffffffffffffffffffffffffffffffffff168152602001908152602001600020549050848110156116bb576040517f08c379a00000000000000000000000000000000000000000000000000000000081526004016116b2906126dd565b60405180910390fd5b84810360008088815260200190815260200160002060008973ffffffffffffffffffffffffffffffffffffffff1673ffffffffffffffffffffffffffffffffffffffff16815260200190815260200160002081905550600073ffffffffffffffffffffffffffffffffffffffff168773ffffffffffffffffffffffffffffffffffffffff168573ffffffffffffffffffffffffffffffffffffffff167fc3d58168c5ae7397731d063d5bbf3d657854427343f4c083240f7aacaa2d0f628989604051611788929190612858565b60405180910390a46117ae84886000868660405180602001604052806000815250611885565b50505050505050565b60606000600167ffffffffffffffff8111156117fc577f4e487b7100000000000000000000000000000000000000000000000000000000600052604160045260246000fd5b60405190808252806020026020018201604052801561182a5781602001602082028036833780820191505090505b5090508281600081518110611868577f4e487b7100000000000000000000000000000000000000000000000000000000600052603260045260246000fd5b60200260200101818152505080915050919050565b505050505050565b505050505050565b6118ac8473ffffffffffffffffffffffffffffffffffffffff16610aed565b15611a6c578373ffffffffffffffffffffffffffffffffffffffff1663f23a6e6187878686866040518663ffffffff1660e01b81526004016118f295949392919061256d565b602060405180830381600087803b15801561190c57600080fd5b505af192505050801561193d57506040513d601f19601f8201168201806040525081019061193a9190612167565b60015b6119e357611949612be5565b806308c379a014156119a6575061195e6130a0565b8061196957506119a8565b806040517f08c379a000000000000000000000000000000000000000000000000000000000815260040161199d919061263b565b60405180910390fd5b505b6040517f08c379a00000000000000000000000000000000000000000000000000000000081526004016119da9061265d565b60405180910390fd5b63f23a6e6160e01b7bffffffffffffffffffffffffffffffffffffffffffffffffffffffff1916817bffffffffffffffffffffffffffffffffffffffffffffffffffffffff191614611a6a576040517f08c379a0000000000000000000000000000000000000000000000000000000008152600401611a619061267d565b60405180910390fd5b505b505050505050565b611a938473ffffffffffffffffffffffffffffffffffffffff16610aed565b15611c53578373ffffffffffffffffffffffffffffffffffffffff1663bc197c8187878686866040518663ffffffff1660e01b8152600401611ad9959493929190612505565b602060405180830381600087803b158015611af357600080fd5b505af1925050508015611b2457506040513d601f19601f82011682018060405250810190611b219190612167565b60015b611bca57611b30612be5565b806308c379a01415611b8d5750611b456130a0565b80611b505750611b8f565b806040517f08c379a0000000000000000000000000000000000000000000000000000000008152600401611b84919061263b565b60405180910390fd5b505b6040517f08c379a0000000000000000000000000000000000000000000000000000000008152600401611bc19061265d565b60405180910390fd5b63bc197c8160e01b7bffffffffffffffffffffffffffffffffffffffffffffffffffffffff1916817bffffffffffffffffffffffffffffffffffffffffffffffffffffffff191614611c51576040517f08c379a0000000000000000000000000000000000000000000000000000000008152600401611c489061267d565b60405180910390fd5b505b505050505050565b6000611c6e611c69846128a6565b612881565b90508083825260208201905082856020860282011115611c8d57600080fd5b60005b85811015611cbd5781611ca38882611d71565b845260208401935060208301925050600181019050611c90565b5050509392505050565b6000611cda611cd5846128d2565b612881565b90508083825260208201905082856020860282011115611cf957600080fd5b60005b85811015611d295781611d0f8882611e43565b845260208401935060208301925050600181019050611cfc565b5050509392505050565b6000611d46611d41846128fe565b612881565b905082815260208101848484011115611d5e57600080fd5b611d69848285612a6a565b509392505050565b600081359050611d8081613136565b92915050565b600082601f830112611d9757600080fd5b8135611da7848260208601611c5b565b91505092915050565b600082601f830112611dc157600080fd5b8135611dd1848260208601611cc7565b91505092915050565b600081359050611de98161314d565b92915050565b600081359050611dfe81613164565b92915050565b600081519050611e1381613164565b92915050565b600082601f830112611e2a57600080fd5b8135611e3a848260208601611d33565b91505092915050565b600081359050611e528161317b565b92915050565b600060208284031215611e6a57600080fd5b6000611e7884828501611d71565b91505092915050565b60008060408385031215611e9457600080fd5b6000611ea285828601611d71565b9250506020611eb385828601611d71565b9150509250929050565b600080600080600060a08688031215611ed557600080fd5b6000611ee388828901611d71565b9550506020611ef488828901611d71565b945050604086013567ffffffffffffffff811115611f1157600080fd5b611f1d88828901611db0565b935050606086013567ffffffffffffffff811115611f3a57600080fd5b611f4688828901611db0565b925050608086013567ffffffffffffffff811115611f6357600080fd5b611f6f88828901611e19565b9150509295509295909350565b600080600080600060a08688031215611f9457600080fd5b6000611fa288828901611d71565b9550506020611fb388828901611d71565b9450506040611fc488828901611e43565b9350506060611fd588828901611e43565b925050608086013567ffffffffffffffff811115611ff257600080fd5b611ffe88828901611e19565b9150509295509295909350565b6000806040838503121561201e57600080fd5b600061202c85828601611d71565b925050602061203d85828601611dda565b9150509250929050565b6000806040838503121561205a57600080fd5b600061206885828601611d71565b925050602061207985828601611e43565b9150509250929050565b60008060006060848603121561209857600080fd5b60006120a686828701611d71565b93505060206120b786828701611e43565b92505060406120c886828701611e43565b9150509250925092565b600080604083850312156120e557600080fd5b600083013567ffffffffffffffff8111156120ff57600080fd5b61210b85828601611d86565b925050602083013567ffffffffffffffff81111561212857600080fd5b61213485828601611db0565b9150509250929050565b60006020828403121561215057600080fd5b600061215e84828501611def565b91505092915050565b60006020828403121561217957600080fd5b600061218784828501611e04565b91505092915050565b6000602082840312156121a257600080fd5b60006121b084828501611e43565b91505092915050565b60006121c583836124cc565b60208301905092915050565b6121da816129f6565b82525050565b60006121eb8261293f565b6121f5818561296d565b93506122008361292f565b8060005b8381101561223157815161221888826121b9565b975061222383612960565b925050600181019050612204565b5085935050505092915050565b61224781612a08565b82525050565b60006122588261294a565b612262818561297e565b9350612272818560208601612a79565b61227b81612c07565b840191505092915050565b600061229182612955565b61229b818561298f565b93506122ab818560208601612a79565b6122b481612c07565b840191505092915050565b60006122cc60348361298f565b91506122d782612c25565b604082019050919050565b60006122ef60288361298f565b91506122fa82612c74565b604082019050919050565b6000612312602b8361298f565b915061231d82612cc3565b604082019050919050565b600061233560268361298f565b915061234082612d12565b604082019050919050565b600061235860248361298f565b915061236382612d61565b604082019050919050565b600061237b60298361298f565b915061238682612db0565b604082019050919050565b600061239e60258361298f565b91506123a982612dff565b604082019050919050565b60006123c160328361298f565b91506123cc82612e4e565b604082019050919050565b60006123e460238361298f565b91506123ef82612e9d565b604082019050919050565b6000612407602a8361298f565b915061241282612eec565b604082019050919050565b600061242a60208361298f565b915061243582612f3b565b602082019050919050565b600061244d60298361298f565b915061245882612f64565b604082019050919050565b600061247060298361298f565b915061247b82612fb3565b604082019050919050565b600061249360288361298f565b915061249e82613002565b604082019050919050565b60006124b660218361298f565b91506124c182613051565b604082019050919050565b6124d581612a60565b82525050565b6124e481612a60565b82525050565b60006020820190506124ff60008301846121d1565b92915050565b600060a08201905061251a60008301886121d1565b61252760208301876121d1565b818103604083015261253981866121e0565b9050818103606083015261254d81856121e0565b90508181036080830152612561818461224d565b90509695505050505050565b600060a08201905061258260008301886121d1565b61258f60208301876121d1565b61259c60408301866124db565b6125a960608301856124db565b81810360808301526125bb818461224d565b90509695505050505050565b600060208201905081810360008301526125e181846121e0565b905092915050565b6000604082019050818103600083015261260381856121e0565b9050818103602083015261261781846121e0565b90509392505050565b6000602082019050612635600083018461223e565b92915050565b600060208201905081810360008301526126558184612286565b905092915050565b60006020820190508181036000830152612676816122bf565b9050919050565b60006020820190508181036000830152612696816122e2565b9050919050565b600060208201905081810360008301526126b681612305565b9050919050565b600060208201905081810360008301526126d681612328565b9050919050565b600060208201905081810360008301526126f68161234b565b9050919050565b600060208201905081810360008301526127168161236e565b9050919050565b6000602082019050818103600083015261273681612391565b9050919050565b60006020820190508181036000830152612756816123b4565b9050919050565b60006020820190508181036000830152612776816123d7565b9050919050565b60006020820190508181036000830152612796816123fa565b9050919050565b600060208201905081810360008301526127b68161241d565b9050919050565b600060208201905081810360008301526127d681612440565b9050919050565b600060208201905081810360008301526127f681612463565b9050919050565b6000602082019050818103600083015261281681612486565b9050919050565b60006020820190508181036000830152612836816124a9565b9050919050565b600060208201905061285260008301846124db565b92915050565b600060408201905061286d60008301856124db565b61287a60208301846124db565b9392505050565b600061288b61289c565b90506128978282612ade565b919050565b6000604051905090565b600067ffffffffffffffff8211156128c1576128c0612bb6565b5b602082029050602081019050919050565b600067ffffffffffffffff8211156128ed576128ec612bb6565b5b602082029050602081019050919050565b600067ffffffffffffffff82111561291957612918612bb6565b5b61292282612c07565b9050602081019050919050565b6000819050602082019050919050565b600081519050919050565b600081519050919050565b600081519050919050565b6000602082019050919050565b600082825260208201905092915050565b600082825260208201905092915050565b600082825260208201905092915050565b60006129ab82612a60565b91506129b683612a60565b9250827fffffffffffffffffffffffffffffffffffffffffffffffffffffffffffffffff038211156129eb576129ea612b58565b5b828201905092915050565b6000612a0182612a40565b9050919050565b60008115159050919050565b60007fffffffff0000000000000000000000000000000000000000000000000000000082169050919050565b600073ffffffffffffffffffffffffffffffffffffffff82169050919050565b6000819050919050565b82818337600083830152505050565b60005b83811015612a97578082015181840152602081019050612a7c565b83811115612aa6576000848401525b50505050565b60006002820490506001821680612ac457607f821691505b60208210811415612ad857612ad7612b87565b5b50919050565b612ae782612c07565b810181811067ffffffffffffffff82111715612b0657612b05612bb6565b5b80604052505050565b6000612b1a82612a60565b91507fffffffffffffffffffffffffffffffffffffffffffffffffffffffffffffffff821415612b4d57612b4c612b58565b5b600182019050919050565b7f4e487b7100000000000000000000000000000000000000000000000000000000600052601160045260246000fd5b7f4e487b7100000000000000000000000000000000000000000000000000000000600052602260045260246000fd5b7f4e487b7100000000000000000000000000000000000000000000000000000000600052604160045260246000fd5b600060033d1115612c045760046000803e612c01600051612c18565b90505b90565b6000601f19601f8301169050919050565b60008160e01c9050919050565b7f455243313135353a207472616e7366657220746f206e6f6e204552433131353560008201527f526563656976657220696d706c656d656e746572000000000000000000000000602082015250565b7f455243313135353a204552433131353552656365697665722072656a6563746560008201527f6420746f6b656e73000000000000000000000000000000000000000000000000602082015250565b7f455243313135353a2062616c616e636520717565727920666f7220746865207a60008201527f65726f2061646472657373000000000000000000000000000000000000000000602082015250565b7f4f776e61626c653a206e6577206f776e657220697320746865207a65726f206160008201527f6464726573730000000000000000000000000000000000000000000000000000602082015250565b7f455243313135353a206275726e20616d6f756e7420657863656564732062616c60008201527f616e636500000000000000000000000000000000000000000000000000000000602082015250565b7f455243313135353a2063616c6c6572206973206e6f74206f776e6572206e6f7260008201527f20617070726f7665640000000000000000000000000000000000000000000000602082015250565b7f455243313135353a207472616e7366657220746f20746865207a65726f20616460008201527f6472657373000000000000000000000000000000000000000000000000000000602082015250565b7f455243313135353a207472616e736665722063616c6c6572206973206e6f742060008201527f6f776e6572206e6f7220617070726f7665640000000000000000000000000000602082015250565b7f455243313135353a206275726e2066726f6d20746865207a65726f206164647260008201527f6573730000000000000000000000000000000000000000000000000000000000602082015250565b7f455243313135353a20696e73756666696369656e742062616c616e636520666f60008201527f72207472616e7366657200000000000000000000000000000000000000000000602082015250565b7f4f776e61626c653a2063616c6c6572206973206e6f7420746865206f776e6572600082015250565b7f455243313135353a2073657474696e6720617070726f76616c2073746174757360008201527f20666f722073656c660000000000000000000000000000000000000000000000602082015250565b7f455243313135353a206163636f756e747320616e6420696473206c656e67746860008201527f206d69736d617463680000000000000000000000000000000000000000000000602082015250565b7f455243313135353a2069647320616e6420616d6f756e7473206c656e6774682060008201527f6d69736d61746368000000000000000000000000000000000000000000000000602082015250565b7f455243313135353a206d696e7420746f20746865207a65726f2061646472657360008201527f7300000000000000000000000000000000000000000000000000000000000000602082015250565b600060443d10156130b057613133565b6130b861289c565b60043d036004823e80513d602482011167ffffffffffffffff821117156130e0575050613133565b808201805167ffffffffffffffff8111156130fe5750505050613133565b80602083010160043d03850181111561311b575050505050613133565b61312a82602001850186612ade565b82955050505050505b90565b61313f816129f6565b811461314a57600080fd5b50565b61315681612a08565b811461316157600080fd5b50565b61316d81612a14565b811461317857600080fd5b50565b61318481612a60565b811461318f57600080fd5b5056fea2646970667358221220c00fb0923685d389bfa649fbbe0049b8134e139599bb1bdc8aa691e7d291889564736f6c6343000801003368747470733a2f2f676174657761792e70696e6174612e636c6f75642f697066732f516d575a33377567377a4d7861616670377a3342385948684833376d6548786f6d4c3857516d4e62457450576d4b",
  "immutableReferences": {},
  "source": "// SPDX-License-Identifier: MIT\npragma solidity ^0.8.1;\n// Import ERC1155 token contract from Openzeppelin\n//   /$$$$$$  /$$     /$$ /$$   /$$  /$$$$$$  /$$   /$$\n//  /$$__  $$|  $$   /$$/| $$  | $$ /$$__  $$| $$  | $$\n// | $$  \\ $$ \\  $$ /$$/ | $$  | $$| $$  \\__/| $$  | $$\n// | $$$$$$$$  \\  $$$$/  | $$  | $$|  $$$$$$ | $$$$$$$$\n// | $$__  $$   \\  $$/   | $$  | $$ \\____  $$| $$__  $$\n// | $$  | $$    | $$    | $$  | $$ /$$  \\ $$| $$  | $$\n// | $$  | $$    | $$    |  $$$$$$/|  $$$$$$/| $$  | $$\n// |__/  |__/    |__/     \\______/  \\______/ |__/  |__/\n                                                \n//  /$$$$$$$$ /$$$$$$$   /$$$$$$          /$$     /$$   /$$$$$$$  /$$$$$$$ \n// | $$_____/| $$__  $$ /$$__  $$       /$$$$   /$$$$  | $$____/ | $$____/ \n// | $$      | $$  \\ $$| $$  \\__/      |_  $$  |_  $$  | $$      | $$      \n// | $$$$$   | $$$$$$$/| $$              | $$    | $$  | $$$$$$$ | $$$$$$$ \n// | $$__/   | $$__  $$| $$              | $$    | $$  |_____  $$|_____  $$\n// | $$      | $$  \\ $$| $$    $$        | $$    | $$   /$$  \\ $$ /$$  \\ $$\n// | $$$$$$$$| $$  | $$|  $$$$$$/       /$$$$$$ /$$$$$$|  $$$$$$/|  $$$$$$/\n// |________/|__/  |__/ \\______/       |______/|______/ \\______/  \\______/ \n\nimport \"./Base-Erc1155.sol\";                                                                 \ncontract RinkebyNFTContract is NFTContract {\n    \n \n    constructor() NFTContract(\"https://gateway.pinata.cloud/ipfs/QmWZ37ug7zMxaafp7z3B8YHhH37meHxomL8WQmNbEtPWmK\"){\n        \n      \n   \n   }\n    function mint(address account,uint256 id,uint256 amount) public virtual override {\n        _mint(account , id , amount,\"\");\n   }\n    function burn(address account,uint256 id,uint256 amount) public virtual override {\n        require(msg.sender == account);\n        _burn(account,id,amount);\n    }\n}\n",
  "sourcePath": "/home/ayushsharma/Desktop/Cross Chain NFts/contracts/ERC-1155Rinkeby.sol",
  "compiler": {
    "name": "solc",
    "version": "0.8.1+commit.df193b15.Emscripten.clang"
  },
  "schemaVersion": "3.4.7",
  "updatedAt": "2022-06-16T09:36:53.919Z",
  "devdoc": {
    "kind": "dev",
    "methods": {
      "balanceOf(address,uint256)": {
        "details": "See {IERC1155-balanceOf}. Requirements: - `account` cannot be the zero address."
      },
      "balanceOfBatch(address[],uint256[])": {
        "details": "See {IERC1155-balanceOfBatch}. Requirements: - `accounts` and `ids` must have the same length."
      },
      "isApprovedForAll(address,address)": {
        "details": "See {IERC1155-isApprovedForAll}."
      },
      "owner()": {
        "details": "Returns the address of the current owner."
      },
      "renounceOwnership()": {
        "details": "Leaves the contract without owner. It will not be possible to call `onlyOwner` functions anymore. Can only be called by the current owner. NOTE: Renouncing ownership will leave the contract without an owner, thereby removing any functionality that is only available to the owner."
      },
      "safeBatchTransferFrom(address,address,uint256[],uint256[],bytes)": {
        "details": "See {IERC1155-safeBatchTransferFrom}."
      },
      "safeTransferFrom(address,address,uint256,uint256,bytes)": {
        "details": "See {IERC1155-safeTransferFrom}."
      },
      "setApprovalForAll(address,bool)": {
        "details": "See {IERC1155-setApprovalForAll}."
      },
      "supportsInterface(bytes4)": {
        "details": "See {IERC165-supportsInterface}."
      },
      "transferOwnership(address)": {
        "details": "Transfers ownership of the contract to a new account (`newOwner`). Can only be called by the current owner."
      },
      "uri(uint256)": {
        "details": "See {IERC1155MetadataURI-uri}. This implementation returns the same URI for *all* token types. It relies on the token type ID substitution mechanism https://eips.ethereum.org/EIPS/eip-1155#metadata[defined in the EIP]. Clients calling this function must replace the `\\{id\\}` substring with the actual token type ID."
      }
    },
    "version": 1
  },
  "userdoc": {
    "kind": "user",
    "methods": {},
    "version": 1
  }
}